{
  "_format": "hh-sol-artifact-1",
  "contractName": "ProfileImageNfts",
  "sourceName": "contracts/MintProfileImage.sol",
  "abi": [
    {
      "inputs": [],
      "stateMutability": "nonpayable",
      "type": "constructor"
    },
    {
      "anonymous": false,
      "inputs": [
        {
          "indexed": true,
          "internalType": "address",
          "name": "owner",
          "type": "address"
        },
        {
          "indexed": true,
          "internalType": "address",
          "name": "approved",
          "type": "address"
        },
        {
          "indexed": true,
          "internalType": "uint256",
          "name": "tokenId",
          "type": "uint256"
        }
      ],
      "name": "Approval",
      "type": "event"
    },
    {
      "anonymous": false,
      "inputs": [
        {
          "indexed": true,
          "internalType": "address",
          "name": "owner",
          "type": "address"
        },
        {
          "indexed": true,
          "internalType": "address",
          "name": "operator",
          "type": "address"
        },
        {
          "indexed": false,
          "internalType": "bool",
          "name": "approved",
          "type": "bool"
        }
      ],
      "name": "ApprovalForAll",
      "type": "event"
    },
    {
      "anonymous": false,
      "inputs": [
        {
          "indexed": false,
          "internalType": "uint256",
          "name": "postId",
          "type": "uint256"
        },
        {
          "indexed": false,
          "internalType": "uint256",
          "name": "id",
          "type": "uint256"
        },
        {
          "indexed": false,
          "internalType": "string",
          "name": "authorName",
          "type": "string"
        },
        {
          "indexed": false,
          "internalType": "address",
          "name": "author",
          "type": "address"
        },
        {
          "indexed": false,
          "internalType": "string",
          "name": "authorImageUrl",
          "type": "string"
        },
        {
          "indexed": false,
          "internalType": "string",
          "name": "text",
          "type": "string"
        },
        {
          "indexed": false,
          "internalType": "uint256",
          "name": "timestamp",
          "type": "uint256"
        }
      ],
      "name": "CommentCreated",
      "type": "event"
    },
    {
      "anonymous": false,
      "inputs": [
        {
          "indexed": true,
          "internalType": "address",
          "name": "previousOwner",
          "type": "address"
        },
        {
          "indexed": true,
          "internalType": "address",
          "name": "newOwner",
          "type": "address"
        }
      ],
      "name": "OwnershipTransferred",
      "type": "event"
    },
    {
      "anonymous": false,
      "inputs": [
        {
          "indexed": false,
          "internalType": "string",
          "name": "username",
          "type": "string"
        },
        {
          "indexed": false,
          "internalType": "address",
          "name": "author",
          "type": "address"
        },
        {
          "indexed": false,
          "internalType": "uint256",
          "name": "timestamp",
          "type": "uint256"
        },
        {
          "indexed": false,
          "internalType": "string",
          "name": "text",
          "type": "string"
        },
        {
          "indexed": false,
          "internalType": "string",
          "name": "imageUrl",
          "type": "string"
        },
        {
          "indexed": false,
          "internalType": "string",
          "name": "authorImageUrl",
          "type": "string"
        }
      ],
      "name": "PostCreated",
      "type": "event"
    },
    {
      "anonymous": false,
      "inputs": [
        {
          "indexed": false,
          "internalType": "uint256",
          "name": "commentId",
          "type": "uint256"
        },
        {
          "indexed": false,
          "internalType": "uint256",
          "name": "id",
          "type": "uint256"
        },
        {
          "indexed": false,
          "internalType": "string",
          "name": "authorName",
          "type": "string"
        },
        {
          "indexed": false,
          "internalType": "address",
          "name": "author",
          "type": "address"
        },
        {
          "indexed": false,
          "internalType": "string",
          "name": "authorImageUrl",
          "type": "string"
        },
        {
          "indexed": false,
          "internalType": "string",
          "name": "text",
          "type": "string"
        },
        {
          "indexed": false,
          "internalType": "uint256",
          "name": "timestamp",
          "type": "uint256"
        }
      ],
      "name": "ReplyCreated",
      "type": "event"
    },
    {
      "anonymous": false,
      "inputs": [
        {
          "indexed": true,
          "internalType": "address",
          "name": "from",
          "type": "address"
        },
        {
          "indexed": true,
          "internalType": "address",
          "name": "to",
          "type": "address"
        },
        {
          "indexed": true,
          "internalType": "uint256",
          "name": "tokenId",
          "type": "uint256"
        }
      ],
      "name": "Transfer",
      "type": "event"
    },
    {
      "anonymous": false,
      "inputs": [
        {
          "indexed": true,
          "internalType": "address",
          "name": "user",
          "type": "address"
        },
        {
          "indexed": false,
          "internalType": "string",
          "name": "name",
          "type": "string"
        },
        {
          "indexed": false,
          "internalType": "string",
          "name": "walletAddress",
          "type": "string"
        },
        {
          "indexed": false,
          "internalType": "string",
          "name": "profileImage",
          "type": "string"
        },
        {
          "indexed": false,
          "internalType": "string",
          "name": "coverImage",
          "type": "string"
        }
      ],
      "name": "UserProfileCreated",
      "type": "event"
    },
    {
      "anonymous": false,
      "inputs": [
        {
          "indexed": true,
          "internalType": "address",
          "name": "user",
          "type": "address"
        },
        {
          "indexed": false,
          "internalType": "string",
          "name": "name",
          "type": "string"
        },
        {
          "indexed": false,
          "internalType": "string",
          "name": "walletAddress",
          "type": "string"
        },
        {
          "indexed": false,
          "internalType": "string",
          "name": "profileImage",
          "type": "string"
        },
        {
          "indexed": false,
          "internalType": "string",
          "name": "coverImage",
          "type": "string"
        }
      ],
      "name": "UserProfileUpdated",
      "type": "event"
    },
    {
      "inputs": [
        {
          "internalType": "address",
          "name": "to",
          "type": "address"
        },
        {
          "internalType": "uint256",
          "name": "tokenId",
          "type": "uint256"
        }
      ],
      "name": "approve",
      "outputs": [],
      "stateMutability": "nonpayable",
      "type": "function"
    },
    {
      "inputs": [
        {
          "internalType": "address",
          "name": "owner",
          "type": "address"
        }
      ],
      "name": "balanceOf",
      "outputs": [
        {
          "internalType": "uint256",
          "name": "",
          "type": "uint256"
        }
      ],
      "stateMutability": "view",
      "type": "function"
    },
    {
      "inputs": [
        {
          "internalType": "uint256",
          "name": "",
          "type": "uint256"
        }
      ],
      "name": "comments",
      "outputs": [
        {
          "internalType": "uint256",
          "name": "id",
          "type": "uint256"
        },
        {
          "internalType": "uint256",
          "name": "postId",
          "type": "uint256"
        },
        {
          "internalType": "string",
          "name": "authorName",
          "type": "string"
        },
        {
          "internalType": "address",
          "name": "author",
          "type": "address"
        },
        {
          "internalType": "string",
          "name": "authorImageUrl",
          "type": "string"
        },
        {
          "internalType": "string",
          "name": "text",
          "type": "string"
        },
        {
          "internalType": "uint256",
          "name": "timestamp",
          "type": "uint256"
        }
      ],
      "stateMutability": "view",
      "type": "function"
    },
    {
      "inputs": [
        {
          "internalType": "uint256",
          "name": "_postId",
          "type": "uint256"
        },
        {
          "internalType": "string",
          "name": "_authorName",
          "type": "string"
        },
        {
          "internalType": "string",
          "name": "_authorImageUrl",
          "type": "string"
        },
        {
          "internalType": "string",
          "name": "_text",
          "type": "string"
        }
      ],
      "name": "createComment",
      "outputs": [],
      "stateMutability": "nonpayable",
      "type": "function"
    },
    {
      "inputs": [
        {
          "internalType": "string",
          "name": "_username",
          "type": "string"
        },
        {
          "internalType": "string",
          "name": "_text",
          "type": "string"
        },
        {
          "internalType": "string",
          "name": "_imageUrl",
          "type": "string"
        },
        {
          "internalType": "string",
          "name": "_authorImageUrl",
          "type": "string"
        }
      ],
      "name": "createPost",
      "outputs": [],
      "stateMutability": "nonpayable",
      "type": "function"
    },
    {
      "inputs": [
        {
          "internalType": "uint256",
          "name": "_commentId",
          "type": "uint256"
        },
        {
          "internalType": "string",
          "name": "_authorName",
          "type": "string"
        },
        {
          "internalType": "string",
          "name": "_authorImageUrl",
          "type": "string"
        },
        {
          "internalType": "string",
          "name": "_text",
          "type": "string"
        }
      ],
      "name": "createReply",
      "outputs": [],
      "stateMutability": "nonpayable",
      "type": "function"
    },
    {
      "inputs": [
        {
          "internalType": "string",
          "name": "_name",
          "type": "string"
        },
        {
          "internalType": "string",
          "name": "_walletAddress",
          "type": "string"
        },
        {
          "internalType": "string",
          "name": "_profileImage",
          "type": "string"
        },
        {
          "internalType": "string",
          "name": "_coverImage",
          "type": "string"
        }
      ],
      "name": "createUserProfile",
      "outputs": [],
      "stateMutability": "nonpayable",
      "type": "function"
    },
    {
      "inputs": [],
      "name": "getAlltoken",
      "outputs": [
        {
          "components": [
            {
              "internalType": "uint256",
              "name": "id",
              "type": "uint256"
            },
            {
              "internalType": "string",
              "name": "uri",
              "type": "string"
            },
            {
              "internalType": "string",
              "name": "space",
              "type": "string"
            }
          ],
          "internalType": "struct ProfileImageNfts.RenderToken[]",
          "name": "",
          "type": "tuple[]"
        }
      ],
      "stateMutability": "view",
      "type": "function"
    },
    {
      "inputs": [
        {
          "internalType": "uint256",
          "name": "tokenId",
          "type": "uint256"
        }
      ],
      "name": "getApproved",
      "outputs": [
        {
          "internalType": "address",
          "name": "",
          "type": "address"
        }
      ],
      "stateMutability": "view",
      "type": "function"
    },
    {
      "inputs": [
        {
          "internalType": "uint256",
          "name": "_postId",
          "type": "uint256"
        }
      ],
      "name": "getCommentsByPostId",
      "outputs": [
        {
          "components": [
            {
              "internalType": "uint256",
              "name": "id",
              "type": "uint256"
            },
            {
              "internalType": "uint256",
              "name": "postId",
              "type": "uint256"
            },
            {
              "internalType": "string",
              "name": "authorName",
              "type": "string"
            },
            {
              "internalType": "address",
              "name": "author",
              "type": "address"
            },
            {
              "internalType": "string",
              "name": "authorImageUrl",
              "type": "string"
            },
            {
              "internalType": "string",
              "name": "text",
              "type": "string"
            },
            {
              "internalType": "uint256",
              "name": "timestamp",
              "type": "uint256"
            }
          ],
          "internalType": "struct ProfileImageNfts.Comment[]",
          "name": "",
          "type": "tuple[]"
        }
      ],
      "stateMutability": "view",
      "type": "function"
    },
    {
      "inputs": [],
      "name": "getPosts",
      "outputs": [
        {
          "components": [
            {
              "internalType": "uint256",
              "name": "id",
              "type": "uint256"
            },
            {
              "internalType": "string",
              "name": "username",
              "type": "string"
            },
            {
              "internalType": "address",
              "name": "author",
              "type": "address"
            },
            {
              "internalType": "uint256",
              "name": "timestamp",
              "type": "uint256"
            },
            {
              "internalType": "string",
              "name": "text",
              "type": "string"
            },
            {
              "internalType": "string",
              "name": "imageUrl",
              "type": "string"
            },
            {
              "internalType": "string",
              "name": "authorImageUrl",
              "type": "string"
            }
          ],
          "internalType": "struct ProfileImageNfts.Post[]",
          "name": "",
          "type": "tuple[]"
        }
      ],
      "stateMutability": "view",
      "type": "function"
    },
    {
      "inputs": [
        {
          "internalType": "uint256",
          "name": "_commentId",
          "type": "uint256"
        }
      ],
      "name": "getRepliesByCommentId",
      "outputs": [
        {
          "components": [
            {
              "internalType": "uint256",
              "name": "id",
              "type": "uint256"
            },
            {
              "internalType": "uint256",
              "name": "commentId",
              "type": "uint256"
            },
            {
              "internalType": "string",
              "name": "authorName",
              "type": "string"
            },
            {
              "internalType": "address",
              "name": "author",
              "type": "address"
            },
            {
              "internalType": "string",
              "name": "authorImageUrl",
              "type": "string"
            },
            {
              "internalType": "string",
              "name": "text",
              "type": "string"
            },
            {
              "internalType": "uint256",
              "name": "timestamp",
              "type": "uint256"
            }
          ],
          "internalType": "struct ProfileImageNfts.Reply[]",
          "name": "",
          "type": "tuple[]"
        }
      ],
      "stateMutability": "view",
      "type": "function"
    },
    {
      "inputs": [],
      "name": "getUserPosts",
      "outputs": [
        {
          "components": [
            {
              "internalType": "uint256",
              "name": "id",
              "type": "uint256"
            },
            {
              "internalType": "string",
              "name": "username",
              "type": "string"
            },
            {
              "internalType": "address",
              "name": "author",
              "type": "address"
            },
            {
              "internalType": "uint256",
              "name": "timestamp",
              "type": "uint256"
            },
            {
              "internalType": "string",
              "name": "text",
              "type": "string"
            },
            {
              "internalType": "string",
              "name": "imageUrl",
              "type": "string"
            },
            {
              "internalType": "string",
              "name": "authorImageUrl",
              "type": "string"
            }
          ],
          "internalType": "struct ProfileImageNfts.Post[]",
          "name": "",
          "type": "tuple[]"
        }
      ],
      "stateMutability": "view",
      "type": "function"
    },
    {
      "inputs": [
        {
          "internalType": "address",
          "name": "_user",
          "type": "address"
        }
      ],
      "name": "getUserProfile",
      "outputs": [
        {
          "components": [
            {
              "internalType": "string",
              "name": "name",
              "type": "string"
            },
            {
              "internalType": "string",
              "name": "walletAddress",
              "type": "string"
            },
            {
              "internalType": "string",
              "name": "profileImage",
              "type": "string"
            },
            {
              "internalType": "string",
              "name": "coverImage",
              "type": "string"
            }
          ],
          "internalType": "struct ProfileImageNfts.UserProfile",
          "name": "",
          "type": "tuple"
        }
      ],
      "stateMutability": "view",
      "type": "function"
    },
    {
      "inputs": [
        {
          "internalType": "address",
          "name": "owner",
          "type": "address"
        },
        {
          "internalType": "address",
          "name": "operator",
          "type": "address"
        }
      ],
      "name": "isApprovedForAll",
      "outputs": [
        {
          "internalType": "bool",
          "name": "",
          "type": "bool"
        }
      ],
      "stateMutability": "view",
      "type": "function"
    },
    {
      "inputs": [
        {
          "internalType": "address",
          "name": "recipents",
          "type": "address"
        },
        {
          "internalType": "string",
          "name": "_uri",
          "type": "string"
        }
      ],
      "name": "mint",
      "outputs": [
        {
          "internalType": "uint256",
          "name": "",
          "type": "uint256"
        }
      ],
      "stateMutability": "nonpayable",
      "type": "function"
    },
    {
      "inputs": [],
      "name": "name",
      "outputs": [
        {
          "internalType": "string",
          "name": "",
          "type": "string"
        }
      ],
      "stateMutability": "view",
      "type": "function"
    },
    {
      "inputs": [],
      "name": "owner",
      "outputs": [
        {
          "internalType": "address",
          "name": "",
          "type": "address"
        }
      ],
      "stateMutability": "view",
      "type": "function"
    },
    {
      "inputs": [
        {
          "internalType": "uint256",
          "name": "tokenId",
          "type": "uint256"
        }
      ],
      "name": "ownerOf",
      "outputs": [
        {
          "internalType": "address",
          "name": "",
          "type": "address"
        }
      ],
      "stateMutability": "view",
      "type": "function"
    },
    {
      "inputs": [],
      "name": "postIdCounter",
      "outputs": [
        {
          "internalType": "uint256",
          "name": "",
          "type": "uint256"
        }
      ],
      "stateMutability": "view",
      "type": "function"
    },
    {
      "inputs": [
        {
          "internalType": "uint256",
          "name": "",
          "type": "uint256"
        }
      ],
      "name": "posts",
      "outputs": [
        {
          "internalType": "uint256",
          "name": "id",
          "type": "uint256"
        },
        {
          "internalType": "string",
          "name": "username",
          "type": "string"
        },
        {
          "internalType": "address",
          "name": "author",
          "type": "address"
        },
        {
          "internalType": "uint256",
          "name": "timestamp",
          "type": "uint256"
        },
        {
          "internalType": "string",
          "name": "text",
          "type": "string"
        },
        {
          "internalType": "string",
          "name": "imageUrl",
          "type": "string"
        },
        {
          "internalType": "string",
          "name": "authorImageUrl",
          "type": "string"
        }
      ],
      "stateMutability": "view",
      "type": "function"
    },
    {
      "inputs": [],
      "name": "renounceOwnership",
      "outputs": [],
      "stateMutability": "nonpayable",
      "type": "function"
    },
    {
      "inputs": [
        {
          "internalType": "uint256",
          "name": "",
          "type": "uint256"
        }
      ],
      "name": "replies",
      "outputs": [
        {
          "internalType": "uint256",
          "name": "id",
          "type": "uint256"
        },
        {
          "internalType": "uint256",
          "name": "commentId",
          "type": "uint256"
        },
        {
          "internalType": "string",
          "name": "authorName",
          "type": "string"
        },
        {
          "internalType": "address",
          "name": "author",
          "type": "address"
        },
        {
          "internalType": "string",
          "name": "authorImageUrl",
          "type": "string"
        },
        {
          "internalType": "string",
          "name": "text",
          "type": "string"
        },
        {
          "internalType": "uint256",
          "name": "timestamp",
          "type": "uint256"
        }
      ],
      "stateMutability": "view",
      "type": "function"
    },
    {
      "inputs": [
        {
          "internalType": "address",
          "name": "from",
          "type": "address"
        },
        {
          "internalType": "address",
          "name": "to",
          "type": "address"
        },
        {
          "internalType": "uint256",
          "name": "tokenId",
          "type": "uint256"
        }
      ],
      "name": "safeTransferFrom",
      "outputs": [],
      "stateMutability": "nonpayable",
      "type": "function"
    },
    {
      "inputs": [
        {
          "internalType": "address",
          "name": "from",
          "type": "address"
        },
        {
          "internalType": "address",
          "name": "to",
          "type": "address"
        },
        {
          "internalType": "uint256",
          "name": "tokenId",
          "type": "uint256"
        },
        {
          "internalType": "bytes",
          "name": "_data",
          "type": "bytes"
        }
      ],
      "name": "safeTransferFrom",
      "outputs": [],
      "stateMutability": "nonpayable",
      "type": "function"
    },
    {
      "inputs": [
        {
          "internalType": "address",
          "name": "operator",
          "type": "address"
        },
        {
          "internalType": "bool",
          "name": "approved",
          "type": "bool"
        }
      ],
      "name": "setApprovalForAll",
      "outputs": [],
      "stateMutability": "nonpayable",
      "type": "function"
    },
    {
      "inputs": [
        {
          "internalType": "bytes4",
          "name": "interfaceId",
          "type": "bytes4"
        }
      ],
      "name": "supportsInterface",
      "outputs": [
        {
          "internalType": "bool",
          "name": "",
          "type": "bool"
        }
      ],
      "stateMutability": "view",
      "type": "function"
    },
    {
      "inputs": [],
      "name": "symbol",
      "outputs": [
        {
          "internalType": "string",
          "name": "",
          "type": "string"
        }
      ],
      "stateMutability": "view",
      "type": "function"
    },
    {
      "inputs": [
        {
          "internalType": "uint256",
          "name": "tokenId",
          "type": "uint256"
        }
      ],
      "name": "tokenURI",
      "outputs": [
        {
          "internalType": "string",
          "name": "",
          "type": "string"
        }
      ],
      "stateMutability": "view",
      "type": "function"
    },
    {
      "inputs": [
        {
          "internalType": "address",
          "name": "from",
          "type": "address"
        },
        {
          "internalType": "address",
          "name": "to",
          "type": "address"
        },
        {
          "internalType": "uint256",
          "name": "tokenId",
          "type": "uint256"
        }
      ],
      "name": "transferFrom",
      "outputs": [],
      "stateMutability": "nonpayable",
      "type": "function"
    },
    {
      "inputs": [
        {
          "internalType": "address",
          "name": "newOwner",
          "type": "address"
        }
      ],
      "name": "transferOwnership",
      "outputs": [],
      "stateMutability": "nonpayable",
      "type": "function"
    },
    {
      "inputs": [
        {
          "internalType": "string",
          "name": "_name",
          "type": "string"
        },
        {
          "internalType": "string",
          "name": "_walletAddress",
          "type": "string"
        },
        {
          "internalType": "string",
          "name": "_profileImage",
          "type": "string"
        },
        {
          "internalType": "string",
          "name": "_coverImage",
          "type": "string"
        }
      ],
      "name": "updateUserProfile",
      "outputs": [],
      "stateMutability": "nonpayable",
      "type": "function"
    }
  ],
  "bytecode": "0x60806040523480156200001157600080fd5b506040518060400160405280601081526020017f50726f66696c65496d6167654e667473000000000000000000000000000000008152506040518060400160405280600381526020017f50494e0000000000000000000000000000000000000000000000000000000000815250816000908051906020019062000096929190620001a6565b508060019080519060200190620000af929190620001a6565b505050620000d2620000c6620000d860201b60201c565b620000e060201b60201c565b620002bb565b600033905090565b6000600660009054906101000a900473ffffffffffffffffffffffffffffffffffffffff16905081600660006101000a81548173ffffffffffffffffffffffffffffffffffffffff021916908373ffffffffffffffffffffffffffffffffffffffff1602179055508173ffffffffffffffffffffffffffffffffffffffff168173ffffffffffffffffffffffffffffffffffffffff167f8be0079c531659141344cd1fd0a4f28419497f9722a3daafe3b4186f6b6457e060405160405180910390a35050565b828054620001b49062000256565b90600052602060002090601f016020900481019282620001d8576000855562000224565b82601f10620001f357805160ff191683800117855562000224565b8280016001018555821562000224579182015b828111156200022357825182559160200191906001019062000206565b5b50905062000233919062000237565b5090565b5b808211156200025257600081600090555060010162000238565b5090565b600060028204905060018216806200026f57607f821691505b602082108114156200028657620002856200028c565b5b50919050565b7f4e487b7100000000000000000000000000000000000000000000000000000000600052602260045260246000fd5b615d4780620002cb6000396000f3fe608060405234801561001057600080fd5b50600436106101f05760003560e01c806370a082311161010f578063a22cb465116100a2578063d0def52111610071578063d0def521146105ef578063e985e9c51461061f578063f2fde38b1461064f578063f919222c1461066b576101f0565b8063a22cb46514610569578063b88d4fde14610585578063c87b56dd146105a1578063cc4ef2cc146105d1576101f0565b80638ebb4c15116100de5780638ebb4c15146104b557806395d89b41146104eb578063987ee15614610509578063a077fe2d14610539576101f0565b806370a0823114610441578063715018a614610471578063797260741461047b5780638da5cb5b14610497576101f0565b806328904431116101875780635c7c366d116101565780635c7c366d146103a15780636352211e146103d7578063695f7f5e146104075780636a57185914610423576101f0565b8063289044311461032d5780633b7e27c21461034b57806341f3004a1461036757806342842e0e14610385576101f0565b80630b1e7f83116101c35780630b1e7f831461028f5780630d57f91f146102c55780630f4b2d9c146102e157806323b872dd14610311576101f0565b806301ffc9a7146101f557806306fdde0314610225578063081812fc14610243578063095ea7b314610273575b600080fd5b61020f600480360381019061020a91906144e8565b610687565b60405161021c9190614fde565b60405180910390f35b61022d610769565b60405161023a9190614ff9565b60405180910390f35b61025d600480360381019061025891906145fd565b6107fb565b60405161026a9190614eef565b60405180910390f35b61028d600480360381019061028891906144ac565b610880565b005b6102a960048036038101906102a491906145fd565b610998565b6040516102bc9796959493929190615336565b60405180910390f35b6102df60048036038101906102da919061453a565b610c2a565b005b6102fb60048036038101906102f691906145fd565b610dd6565b6040516103089190614f56565b60405180910390f35b61032b60048036038101906103269190614352565b611230565b005b610335611290565b6040516103429190614f9a565b60405180910390f35b61036560048036038101906103609190614626565b6113f5565b005b61036f61157b565b60405161037c9190614f78565b60405180910390f35b61039f600480360381019061039a9190614352565b61188c565b005b6103bb60048036038101906103b691906145fd565b6118ac565b6040516103ce97969594939291906153c1565b60405180910390f35b6103f160048036038101906103ec91906145fd565b611ab6565b6040516103fe9190614eef565b60405180910390f35b610421600480360381019061041c919061453a565b611b68565b005b61042b611c99565b604051610438919061531b565b60405180910390f35b61045b600480360381019061045691906142ed565b611c9f565b604051610468919061531b565b60405180910390f35b610479611d57565b005b6104956004803603810190610490919061453a565b611ddf565b005b61049f6120af565b6040516104ac9190614eef565b60405180910390f35b6104cf60048036038101906104ca91906145fd565b6120d9565b6040516104e297969594939291906153c1565b60405180910390f35b6104f36122e3565b6040516105009190614ff9565b60405180910390f35b610523600480360381019061051e91906142ed565b612375565b60405161053091906152f9565b60405180910390f35b610553600480360381019061054e91906145fd565b612616565b6040516105609190614fbc565b60405180910390f35b610583600480360381019061057e919061441c565b612a70565b005b61059f600480360381019061059a91906143a1565b612a86565b005b6105bb60048036038101906105b691906145fd565b612ae8565b6040516105c89190614ff9565b60405180910390f35b6105d9612bdb565b6040516105e69190614f78565b60405180910390f35b61060960048036038101906106049190614458565b613159565b604051610616919061531b565b60405180910390f35b61063960048036038101906106349190614316565b613190565b6040516106469190614fde565b60405180910390f35b610669600480360381019061066491906142ed565b613224565b005b61068560048036038101906106809190614626565b61331c565b005b60007f80ac58cd000000000000000000000000000000000000000000000000000000007bffffffffffffffffffffffffffffffffffffffffffffffffffffffff1916827bffffffffffffffffffffffffffffffffffffffffffffffffffffffff1916148061075257507f5b5e139f000000000000000000000000000000000000000000000000000000007bffffffffffffffffffffffffffffffffffffffffffffffffffffffff1916827bffffffffffffffffffffffffffffffffffffffffffffffffffffffff1916145b806107625750610761826134a2565b5b9050919050565b60606000805461077890615739565b80601f01602080910402602001604051908101604052809291908181526020018280546107a490615739565b80156107f15780601f106107c6576101008083540402835291602001916107f1565b820191906000526020600020905b8154815290600101906020018083116107d457829003601f168201915b5050505050905090565b60006108068261350c565b610845576040517f08c379a000000000000000000000000000000000000000000000000000000000815260040161083c90615239565b60405180910390fd5b6004600083815260200190815260200160002060009054906101000a900473ffffffffffffffffffffffffffffffffffffffff169050919050565b600061088b82611ab6565b90508073ffffffffffffffffffffffffffffffffffffffff168373ffffffffffffffffffffffffffffffffffffffff1614156108fc576040517f08c379a00000000000000000000000000000000000000000000000000000000081526004016108f390615299565b60405180910390fd5b8073ffffffffffffffffffffffffffffffffffffffff1661091b613578565b73ffffffffffffffffffffffffffffffffffffffff16148061094a575061094981610944613578565b613190565b5b610989576040517f08c379a0000000000000000000000000000000000000000000000000000000008152600401610980906151b9565b60405180910390fd5b6109938383613580565b505050565b600981815481106109a857600080fd5b90600052602060002090600702016000915090508060000154908060010180546109d190615739565b80601f01602080910402602001604051908101604052809291908181526020018280546109fd90615739565b8015610a4a5780601f10610a1f57610100808354040283529160200191610a4a565b820191906000526020600020905b815481529060010190602001808311610a2d57829003601f168201915b5050505050908060020160009054906101000a900473ffffffffffffffffffffffffffffffffffffffff1690806003015490806004018054610a8b90615739565b80601f0160208091040260200160405190810160405280929190818152602001828054610ab790615739565b8015610b045780601f10610ad957610100808354040283529160200191610b04565b820191906000526020600020905b815481529060010190602001808311610ae757829003601f168201915b505050505090806005018054610b1990615739565b80601f0160208091040260200160405190810160405280929190818152602001828054610b4590615739565b8015610b925780601f10610b6757610100808354040283529160200191610b92565b820191906000526020600020905b815481529060010190602001808311610b7557829003601f168201915b505050505090806006018054610ba790615739565b80601f0160208091040260200160405190810160405280929190818152602001828054610bd390615739565b8015610c205780601f10610bf557610100808354040283529160200191610c20565b820191906000526020600020905b815481529060010190602001808311610c0357829003601f168201915b5050505050905087565b6000600d549050600d6000815480929190610c449061579c565b919050555060096040518060e001604052808381526020018781526020013373ffffffffffffffffffffffffffffffffffffffff168152602001428152602001868152602001858152602001848152509080600181540180825580915050600190039060005260206000209060070201600090919091909150600082015181600001556020820151816001019080519060200190610ce3929190613fcf565b5060408201518160020160006101000a81548173ffffffffffffffffffffffffffffffffffffffff021916908373ffffffffffffffffffffffffffffffffffffffff160217905550606082015181600301556080820151816004019080519060200190610d51929190613fcf565b5060a0820151816005019080519060200190610d6e929190613fcf565b5060c0820151816006019080519060200190610d8b929190613fcf565b5050507f3d2c942797a8eb02631fa68384abfd204eabd8bd20866ece0935f521a368e160853342878787604051610dc79695949392919061501b565b60405180910390a15050505050565b60606000805b600a80549050811015610e5e5783600a8281548110610e24577f4e487b7100000000000000000000000000000000000000000000000000000000600052603260045260246000fd5b9060005260206000209060070201600101541415610e4b578180610e479061579c565b9250505b8080610e569061579c565b915050610ddc565b5060008167ffffffffffffffff811115610ea1577f4e487b7100000000000000000000000000000000000000000000000000000000600052604160045260246000fd5b604051908082528060200260200182016040528015610eda57816020015b610ec7614055565b815260200190600190039081610ebf5790505b5090506000805b600a805490508110156112245785600a8281548110610f29577f4e487b7100000000000000000000000000000000000000000000000000000000600052603260045260246000fd5b906000526020600020906007020160010154141561121157600a8181548110610f7b577f4e487b7100000000000000000000000000000000000000000000000000000000600052603260045260246000fd5b90600052602060002090600702016040518060e00160405290816000820154815260200160018201548152602001600282018054610fb890615739565b80601f0160208091040260200160405190810160405280929190818152602001828054610fe490615739565b80156110315780601f1061100657610100808354040283529160200191611031565b820191906000526020600020905b81548152906001019060200180831161101457829003601f168201915b505050505081526020016003820160009054906101000a900473ffffffffffffffffffffffffffffffffffffffff1673ffffffffffffffffffffffffffffffffffffffff1673ffffffffffffffffffffffffffffffffffffffff1681526020016004820180546110a090615739565b80601f01602080910402602001604051908101604052809291908181526020018280546110cc90615739565b80156111195780601f106110ee57610100808354040283529160200191611119565b820191906000526020600020905b8154815290600101906020018083116110fc57829003601f168201915b5050505050815260200160058201805461113290615739565b80601f016020809104026020016040519081016040528092919081815260200182805461115e90615739565b80156111ab5780601f10611180576101008083540402835291602001916111ab565b820191906000526020600020905b81548152906001019060200180831161118e57829003601f168201915b505050505081526020016006820154815250508383815181106111f7577f4e487b7100000000000000000000000000000000000000000000000000000000600052603260045260246000fd5b6020026020010181905250818061120d9061579c565b9250505b808061121c9061579c565b915050610ee1565b50819350505050919050565b61124161123b613578565b82613639565b611280576040517f08c379a0000000000000000000000000000000000000000000000000000000008152600401611277906152b9565b60405180910390fd5b61128b838383613717565b505050565b6060600061129e6007613973565b905060008167ffffffffffffffff8111156112e2577f4e487b7100000000000000000000000000000000000000000000000000000000600052604160045260246000fd5b60405190808252806020026020018201604052801561131b57816020015b6113086140a8565b8152602001906001900390816113005790505b50905060005b8281116113ec576113318161350c565b156113d957600061134182612ae8565b905060405180606001604052808381526020018281526020016040518060400160405280600181526020017f20000000000000000000000000000000000000000000000000000000000000008152508152508383815181106113cc577f4e487b7100000000000000000000000000000000000000000000000000000000600052603260045260246000fd5b6020026020010181905250505b80806113e49061579c565b915050611321565b50809250505090565b6000600b805490509050600b6040518060e001604052808381526020018781526020018681526020013373ffffffffffffffffffffffffffffffffffffffff168152602001858152602001848152602001428152509080600181540180825580915050600190039060005260206000209060070201600090919091909150600082015181600001556020820151816001015560408201518160020190805190602001906114a3929190613fcf565b5060608201518160030160006101000a81548173ffffffffffffffffffffffffffffffffffffffff021916908373ffffffffffffffffffffffffffffffffffffffff1602179055506080820151816004019080519060200190611507929190613fcf565b5060a0820151816005019080519060200190611524929190613fcf565b5060c0820151816006015550507f0728e0417bdddf92581071447633f013ba1090ee740be8791fa382a72bb54a138582863387874260405161156c97969594939291906153c1565b60405180910390a15050505050565b60606009805480602002602001604051908101604052809291908181526020016000905b8282101561188357838290600052602060002090600702016040518060e0016040529081600082015481526020016001820180546115dc90615739565b80601f016020809104026020016040519081016040528092919081815260200182805461160890615739565b80156116555780601f1061162a57610100808354040283529160200191611655565b820191906000526020600020905b81548152906001019060200180831161163857829003601f168201915b505050505081526020016002820160009054906101000a900473ffffffffffffffffffffffffffffffffffffffff1673ffffffffffffffffffffffffffffffffffffffff1673ffffffffffffffffffffffffffffffffffffffff168152602001600382015481526020016004820180546116ce90615739565b80601f01602080910402602001604051908101604052809291908181526020018280546116fa90615739565b80156117475780601f1061171c57610100808354040283529160200191611747565b820191906000526020600020905b81548152906001019060200180831161172a57829003601f168201915b5050505050815260200160058201805461176090615739565b80601f016020809104026020016040519081016040528092919081815260200182805461178c90615739565b80156117d95780601f106117ae576101008083540402835291602001916117d9565b820191906000526020600020905b8154815290600101906020018083116117bc57829003601f168201915b505050505081526020016006820180546117f290615739565b80601f016020809104026020016040519081016040528092919081815260200182805461181e90615739565b801561186b5780601f106118405761010080835404028352916020019161186b565b820191906000526020600020905b81548152906001019060200180831161184e57829003601f168201915b5050505050815250508152602001906001019061159f565b50505050905090565b6118a783838360405180602001604052806000815250612a86565b505050565b600b81815481106118bc57600080fd5b90600052602060002090600702016000915090508060000154908060010154908060020180546118eb90615739565b80601f016020809104026020016040519081016040528092919081815260200182805461191790615739565b80156119645780601f1061193957610100808354040283529160200191611964565b820191906000526020600020905b81548152906001019060200180831161194757829003601f168201915b5050505050908060030160009054906101000a900473ffffffffffffffffffffffffffffffffffffffff169080600401805461199f90615739565b80601f01602080910402602001604051908101604052809291908181526020018280546119cb90615739565b8015611a185780601f106119ed57610100808354040283529160200191611a18565b820191906000526020600020905b8154815290600101906020018083116119fb57829003601f168201915b505050505090806005018054611a2d90615739565b80601f0160208091040260200160405190810160405280929190818152602001828054611a5990615739565b8015611aa65780601f10611a7b57610100808354040283529160200191611aa6565b820191906000526020600020905b815481529060010190602001808311611a8957829003601f168201915b5050505050908060060154905087565b6000806002600084815260200190815260200160002060009054906101000a900473ffffffffffffffffffffffffffffffffffffffff169050600073ffffffffffffffffffffffffffffffffffffffff168173ffffffffffffffffffffffffffffffffffffffff161415611b5f576040517f08c379a0000000000000000000000000000000000000000000000000000000008152600401611b56906151f9565b60405180910390fd5b80915050919050565b604051806080016040528085815260200184815260200183815260200182815250600c60003373ffffffffffffffffffffffffffffffffffffffff1673ffffffffffffffffffffffffffffffffffffffff1681526020019081526020016000206000820151816000019080519060200190611be4929190613fcf565b506020820151816001019080519060200190611c01929190613fcf565b506040820151816002019080519060200190611c1e929190613fcf565b506060820151816003019080519060200190611c3b929190613fcf565b509050503373ffffffffffffffffffffffffffffffffffffffff167f665b1b5e9c537629b88aece147a5ea5c08f4a9fe399e3008dd2cf8151cea8f6185858585604051611c8b9493929190615098565b60405180910390a250505050565b600d5481565b60008073ffffffffffffffffffffffffffffffffffffffff168273ffffffffffffffffffffffffffffffffffffffff161415611d10576040517f08c379a0000000000000000000000000000000000000000000000000000000008152600401611d07906151d9565b60405180910390fd5b600360008373ffffffffffffffffffffffffffffffffffffffff1673ffffffffffffffffffffffffffffffffffffffff168152602001908152602001600020549050919050565b611d5f613578565b73ffffffffffffffffffffffffffffffffffffffff16611d7d6120af565b73ffffffffffffffffffffffffffffffffffffffff1614611dd3576040517f08c379a0000000000000000000000000000000000000000000000000000000008152600401611dca90615259565b60405180910390fd5b611ddd6000613981565b565b6000600c60003373ffffffffffffffffffffffffffffffffffffffff1673ffffffffffffffffffffffffffffffffffffffff1681526020019081526020016000209050600085511415611ebc57806000018054611e3b90615739565b80601f0160208091040260200160405190810160405280929190818152602001828054611e6790615739565b8015611eb45780601f10611e8957610100808354040283529160200191611eb4565b820191906000526020600020905b815481529060010190602001808311611e9757829003601f168201915b505050505094505b600083511415611f5657806002018054611ed590615739565b80601f0160208091040260200160405190810160405280929190818152602001828054611f0190615739565b8015611f4e5780601f10611f2357610100808354040283529160200191611f4e565b820191906000526020600020905b815481529060010190602001808311611f3157829003601f168201915b505050505092505b600082511415611ff057806003018054611f6f90615739565b80601f0160208091040260200160405190810160405280929190818152602001828054611f9b90615739565b8015611fe85780601f10611fbd57610100808354040283529160200191611fe8565b820191906000526020600020905b815481529060010190602001808311611fcb57829003601f168201915b505050505091505b84816000019080519060200190612008929190613fcf565b5083816001019080519060200190612021929190613fcf565b508281600201908051906020019061203a929190613fcf565b5081816003019080519060200190612053929190613fcf565b503373ffffffffffffffffffffffffffffffffffffffff167fb492166838a13bd7d8be9f3425f4e7d0cf5aa2e551333f07be090f1c6b89ddbd868686866040516120a09493929190615098565b60405180910390a25050505050565b6000600660009054906101000a900473ffffffffffffffffffffffffffffffffffffffff16905090565b600a81815481106120e957600080fd5b906000526020600020906007020160009150905080600001549080600101549080600201805461211890615739565b80601f016020809104026020016040519081016040528092919081815260200182805461214490615739565b80156121915780601f1061216657610100808354040283529160200191612191565b820191906000526020600020905b81548152906001019060200180831161217457829003601f168201915b5050505050908060030160009054906101000a900473ffffffffffffffffffffffffffffffffffffffff16908060040180546121cc90615739565b80601f01602080910402602001604051908101604052809291908181526020018280546121f890615739565b80156122455780601f1061221a57610100808354040283529160200191612245565b820191906000526020600020905b81548152906001019060200180831161222857829003601f168201915b50505050509080600501805461225a90615739565b80601f016020809104026020016040519081016040528092919081815260200182805461228690615739565b80156122d35780601f106122a8576101008083540402835291602001916122d3565b820191906000526020600020905b8154815290600101906020018083116122b657829003601f168201915b5050505050908060060154905087565b6060600180546122f290615739565b80601f016020809104026020016040519081016040528092919081815260200182805461231e90615739565b801561236b5780601f106123405761010080835404028352916020019161236b565b820191906000526020600020905b81548152906001019060200180831161234e57829003601f168201915b5050505050905090565b61237d6140c9565b600c60008373ffffffffffffffffffffffffffffffffffffffff1673ffffffffffffffffffffffffffffffffffffffff1681526020019081526020016000206040518060800160405290816000820180546123d790615739565b80601f016020809104026020016040519081016040528092919081815260200182805461240390615739565b80156124505780601f1061242557610100808354040283529160200191612450565b820191906000526020600020905b81548152906001019060200180831161243357829003601f168201915b5050505050815260200160018201805461246990615739565b80601f016020809104026020016040519081016040528092919081815260200182805461249590615739565b80156124e25780601f106124b7576101008083540402835291602001916124e2565b820191906000526020600020905b8154815290600101906020018083116124c557829003601f168201915b505050505081526020016002820180546124fb90615739565b80601f016020809104026020016040519081016040528092919081815260200182805461252790615739565b80156125745780601f1061254957610100808354040283529160200191612574565b820191906000526020600020905b81548152906001019060200180831161255757829003601f168201915b5050505050815260200160038201805461258d90615739565b80601f01602080910402602001604051908101604052809291908181526020018280546125b990615739565b80156126065780601f106125db57610100808354040283529160200191612606565b820191906000526020600020905b8154815290600101906020018083116125e957829003601f168201915b5050505050815250509050919050565b60606000805b600b8054905081101561269e5783600b8281548110612664577f4e487b7100000000000000000000000000000000000000000000000000000000600052603260045260246000fd5b906000526020600020906007020160010154141561268b5781806126879061579c565b9250505b80806126969061579c565b91505061261c565b5060008167ffffffffffffffff8111156126e1577f4e487b7100000000000000000000000000000000000000000000000000000000600052604160045260246000fd5b60405190808252806020026020018201604052801561271a57816020015b6127076140f1565b8152602001906001900390816126ff5790505b5090506000805b600b80549050811015612a645785600b8281548110612769577f4e487b7100000000000000000000000000000000000000000000000000000000600052603260045260246000fd5b9060005260206000209060070201600101541415612a5157600b81815481106127bb577f4e487b7100000000000000000000000000000000000000000000000000000000600052603260045260246000fd5b90600052602060002090600702016040518060e001604052908160008201548152602001600182015481526020016002820180546127f890615739565b80601f016020809104026020016040519081016040528092919081815260200182805461282490615739565b80156128715780601f1061284657610100808354040283529160200191612871565b820191906000526020600020905b81548152906001019060200180831161285457829003601f168201915b505050505081526020016003820160009054906101000a900473ffffffffffffffffffffffffffffffffffffffff1673ffffffffffffffffffffffffffffffffffffffff1673ffffffffffffffffffffffffffffffffffffffff1681526020016004820180546128e090615739565b80601f016020809104026020016040519081016040528092919081815260200182805461290c90615739565b80156129595780601f1061292e57610100808354040283529160200191612959565b820191906000526020600020905b81548152906001019060200180831161293c57829003601f168201915b5050505050815260200160058201805461297290615739565b80601f016020809104026020016040519081016040528092919081815260200182805461299e90615739565b80156129eb5780601f106129c0576101008083540402835291602001916129eb565b820191906000526020600020905b8154815290600101906020018083116129ce57829003601f168201915b50505050508152602001600682015481525050838381518110612a37577f4e487b7100000000000000000000000000000000000000000000000000000000600052603260045260246000fd5b60200260200101819052508180612a4d9061579c565b9250505b8080612a5c9061579c565b915050612721565b50819350505050919050565b612a82612a7b613578565b8383613a47565b5050565b612a97612a91613578565b83613639565b612ad6576040517f08c379a0000000000000000000000000000000000000000000000000000000008152600401612acd906152b9565b60405180910390fd5b612ae284848484613bb4565b50505050565b6060612af38261350c565b612b32576040517f08c379a0000000000000000000000000000000000000000000000000000000008152600401612b29906152d9565b60405180910390fd5b6000600860008481526020019081526020016000208054612b5290615739565b80601f0160208091040260200160405190810160405280929190818152602001828054612b7e90615739565b8015612bcb5780601f10612ba057610100808354040283529160200191612bcb565b820191906000526020600020905b815481529060010190602001808311612bae57829003601f168201915b5050505050905080915050919050565b606060008033905060005b600980549050811015612cb4578173ffffffffffffffffffffffffffffffffffffffff1660098281548110612c44577f4e487b7100000000000000000000000000000000000000000000000000000000600052603260045260246000fd5b906000526020600020906007020160020160009054906101000a900473ffffffffffffffffffffffffffffffffffffffff1673ffffffffffffffffffffffffffffffffffffffff161415612ca1578280612c9d9061579c565b9350505b8080612cac9061579c565b915050612be6565b5060008267ffffffffffffffff811115612cf7577f4e487b7100000000000000000000000000000000000000000000000000000000600052604160045260246000fd5b604051908082528060200260200182016040528015612d3057816020015b612d1d614144565b815260200190600190039081612d155790505b5090506000805b60098054905081101561314e578373ffffffffffffffffffffffffffffffffffffffff1660098281548110612d95577f4e487b7100000000000000000000000000000000000000000000000000000000600052603260045260246000fd5b906000526020600020906007020160020160009054906101000a900473ffffffffffffffffffffffffffffffffffffffff1673ffffffffffffffffffffffffffffffffffffffff16141561313b5760098181548110612e1d577f4e487b7100000000000000000000000000000000000000000000000000000000600052603260045260246000fd5b90600052602060002090600702016040518060e001604052908160008201548152602001600182018054612e5090615739565b80601f0160208091040260200160405190810160405280929190818152602001828054612e7c90615739565b8015612ec95780601f10612e9e57610100808354040283529160200191612ec9565b820191906000526020600020905b815481529060010190602001808311612eac57829003601f168201915b505050505081526020016002820160009054906101000a900473ffffffffffffffffffffffffffffffffffffffff1673ffffffffffffffffffffffffffffffffffffffff1673ffffffffffffffffffffffffffffffffffffffff16815260200160038201548152602001600482018054612f4290615739565b80601f0160208091040260200160405190810160405280929190818152602001828054612f6e90615739565b8015612fbb5780601f10612f9057610100808354040283529160200191612fbb565b820191906000526020600020905b815481529060010190602001808311612f9e57829003601f168201915b50505050508152602001600582018054612fd490615739565b80601f016020809104026020016040519081016040528092919081815260200182805461300090615739565b801561304d5780601f106130225761010080835404028352916020019161304d565b820191906000526020600020905b81548152906001019060200180831161303057829003601f168201915b5050505050815260200160068201805461306690615739565b80601f016020809104026020016040519081016040528092919081815260200182805461309290615739565b80156130df5780601f106130b4576101008083540402835291602001916130df565b820191906000526020600020905b8154815290600101906020018083116130c257829003601f168201915b505050505081525050838381518110613121577f4e487b7100000000000000000000000000000000000000000000000000000000600052603260045260246000fd5b602002602001018190525081806131379061579c565b9250505b80806131469061579c565b915050612d37565b508194505050505090565b6000806131666007613973565b90506131728482613c10565b61317c8184613dde565b6131866007613e0a565b8091505092915050565b6000600560008473ffffffffffffffffffffffffffffffffffffffff1673ffffffffffffffffffffffffffffffffffffffff16815260200190815260200160002060008373ffffffffffffffffffffffffffffffffffffffff1673ffffffffffffffffffffffffffffffffffffffff16815260200190815260200160002060009054906101000a900460ff16905092915050565b61322c613578565b73ffffffffffffffffffffffffffffffffffffffff1661324a6120af565b73ffffffffffffffffffffffffffffffffffffffff16146132a0576040517f08c379a000000000000000000000000000000000000000000000000000000000815260040161329790615259565b60405180910390fd5b600073ffffffffffffffffffffffffffffffffffffffff168173ffffffffffffffffffffffffffffffffffffffff161415613310576040517f08c379a000000000000000000000000000000000000000000000000000000000815260040161330790615119565b60405180910390fd5b61331981613981565b50565b6000600a805490509050600a6040518060e001604052808381526020018781526020018681526020013373ffffffffffffffffffffffffffffffffffffffff168152602001858152602001848152602001428152509080600181540180825580915050600190039060005260206000209060070201600090919091909150600082015181600001556020820151816001015560408201518160020190805190602001906133ca929190613fcf565b5060608201518160030160006101000a81548173ffffffffffffffffffffffffffffffffffffffff021916908373ffffffffffffffffffffffffffffffffffffffff160217905550608082015181600401908051906020019061342e929190613fcf565b5060a082015181600501908051906020019061344b929190613fcf565b5060c0820151816006015550507f863fbd47f565dac9d543ba5d321be3e2a1ae8f818f6d0c7a6ef3d115d235f56a8582863387874260405161349397969594939291906153c1565b60405180910390a15050505050565b60007f01ffc9a7000000000000000000000000000000000000000000000000000000007bffffffffffffffffffffffffffffffffffffffffffffffffffffffff1916827bffffffffffffffffffffffffffffffffffffffffffffffffffffffff1916149050919050565b60008073ffffffffffffffffffffffffffffffffffffffff166002600084815260200190815260200160002060009054906101000a900473ffffffffffffffffffffffffffffffffffffffff1673ffffffffffffffffffffffffffffffffffffffff1614159050919050565b600033905090565b816004600083815260200190815260200160002060006101000a81548173ffffffffffffffffffffffffffffffffffffffff021916908373ffffffffffffffffffffffffffffffffffffffff160217905550808273ffffffffffffffffffffffffffffffffffffffff166135f383611ab6565b73ffffffffffffffffffffffffffffffffffffffff167f8c5be1e5ebec7d5bd14f71427d1e84f3dd0314c0f7b2291e5b200ac8c7c3b92560405160405180910390a45050565b60006136448261350c565b613683576040517f08c379a000000000000000000000000000000000000000000000000000000000815260040161367a90615199565b60405180910390fd5b600061368e83611ab6565b90508073ffffffffffffffffffffffffffffffffffffffff168473ffffffffffffffffffffffffffffffffffffffff1614806136fd57508373ffffffffffffffffffffffffffffffffffffffff166136e5846107fb565b73ffffffffffffffffffffffffffffffffffffffff16145b8061370e575061370d8185613190565b5b91505092915050565b8273ffffffffffffffffffffffffffffffffffffffff1661373782611ab6565b73ffffffffffffffffffffffffffffffffffffffff161461378d576040517f08c379a000000000000000000000000000000000000000000000000000000000815260040161378490615279565b60405180910390fd5b600073ffffffffffffffffffffffffffffffffffffffff168273ffffffffffffffffffffffffffffffffffffffff1614156137fd576040517f08c379a00000000000000000000000000000000000000000000000000000000081526004016137f490615159565b60405180910390fd5b613808838383613e20565b613813600082613580565b6001600360008573ffffffffffffffffffffffffffffffffffffffff1673ffffffffffffffffffffffffffffffffffffffff1681526020019081526020016000206000828254613863919061564f565b925050819055506001600360008473ffffffffffffffffffffffffffffffffffffffff1673ffffffffffffffffffffffffffffffffffffffff16815260200190815260200160002060008282546138ba91906155f9565b92505081905550816002600083815260200190815260200160002060006101000a81548173ffffffffffffffffffffffffffffffffffffffff021916908373ffffffffffffffffffffffffffffffffffffffff160217905550808273ffffffffffffffffffffffffffffffffffffffff168473ffffffffffffffffffffffffffffffffffffffff167fddf252ad1be2c89b69c2b068fc378daa952ba7f163c4a11628f55a4df523b3ef60405160405180910390a4505050565b600081600001549050919050565b6000600660009054906101000a900473ffffffffffffffffffffffffffffffffffffffff16905081600660006101000a81548173ffffffffffffffffffffffffffffffffffffffff021916908373ffffffffffffffffffffffffffffffffffffffff1602179055508173ffffffffffffffffffffffffffffffffffffffff168173ffffffffffffffffffffffffffffffffffffffff167f8be0079c531659141344cd1fd0a4f28419497f9722a3daafe3b4186f6b6457e060405160405180910390a35050565b8173ffffffffffffffffffffffffffffffffffffffff168373ffffffffffffffffffffffffffffffffffffffff161415613ab6576040517f08c379a0000000000000000000000000000000000000000000000000000000008152600401613aad90615179565b60405180910390fd5b80600560008573ffffffffffffffffffffffffffffffffffffffff1673ffffffffffffffffffffffffffffffffffffffff16815260200190815260200160002060008473ffffffffffffffffffffffffffffffffffffffff1673ffffffffffffffffffffffffffffffffffffffff16815260200190815260200160002060006101000a81548160ff0219169083151502179055508173ffffffffffffffffffffffffffffffffffffffff168373ffffffffffffffffffffffffffffffffffffffff167f17307eab39ab6107e8899845ad3d59bd9653f200f220920489ca2b5937696c3183604051613ba79190614fde565b60405180910390a3505050565b613bbf848484613717565b613bcb84848484613e25565b613c0a576040517f08c379a0000000000000000000000000000000000000000000000000000000008152600401613c01906150f9565b60405180910390fd5b50505050565b600073ffffffffffffffffffffffffffffffffffffffff168273ffffffffffffffffffffffffffffffffffffffff161415613c80576040517f08c379a0000000000000000000000000000000000000000000000000000000008152600401613c7790615219565b60405180910390fd5b613c898161350c565b15613cc9576040517f08c379a0000000000000000000000000000000000000000000000000000000008152600401613cc090615139565b60405180910390fd5b613cd560008383613e20565b6001600360008473ffffffffffffffffffffffffffffffffffffffff1673ffffffffffffffffffffffffffffffffffffffff1681526020019081526020016000206000828254613d2591906155f9565b92505081905550816002600083815260200190815260200160002060006101000a81548173ffffffffffffffffffffffffffffffffffffffff021916908373ffffffffffffffffffffffffffffffffffffffff160217905550808273ffffffffffffffffffffffffffffffffffffffff16600073ffffffffffffffffffffffffffffffffffffffff167fddf252ad1be2c89b69c2b068fc378daa952ba7f163c4a11628f55a4df523b3ef60405160405180910390a45050565b80600860008481526020019081526020016000209080519060200190613e05929190613fcf565b505050565b6001816000016000828254019250508190555050565b505050565b6000613e468473ffffffffffffffffffffffffffffffffffffffff16613fbc565b15613faf578373ffffffffffffffffffffffffffffffffffffffff1663150b7a02613e6f613578565b8786866040518563ffffffff1660e01b8152600401613e919493929190614f0a565b602060405180830381600087803b158015613eab57600080fd5b505af1925050508015613edc57506040513d601f19601f82011682018060405250810190613ed99190614511565b60015b613f5f573d8060008114613f0c576040519150601f19603f3d011682016040523d82523d6000602084013e613f11565b606091505b50600081511415613f57576040517f08c379a0000000000000000000000000000000000000000000000000000000008152600401613f4e906150f9565b60405180910390fd5b805181602001fd5b63150b7a0260e01b7bffffffffffffffffffffffffffffffffffffffffffffffffffffffff1916817bffffffffffffffffffffffffffffffffffffffffffffffffffffffff191614915050613fb4565b600190505b949350505050565b600080823b905060008111915050919050565b828054613fdb90615739565b90600052602060002090601f016020900481019282613ffd5760008555614044565b82601f1061401657805160ff1916838001178555614044565b82800160010185558215614044579182015b82811115614043578251825591602001919060010190614028565b5b5090506140519190614197565b5090565b6040518060e00160405280600081526020016000815260200160608152602001600073ffffffffffffffffffffffffffffffffffffffff1681526020016060815260200160608152602001600081525090565b60405180606001604052806000815260200160608152602001606081525090565b6040518060800160405280606081526020016060815260200160608152602001606081525090565b6040518060e00160405280600081526020016000815260200160608152602001600073ffffffffffffffffffffffffffffffffffffffff1681526020016060815260200160608152602001600081525090565b6040518060e001604052806000815260200160608152602001600073ffffffffffffffffffffffffffffffffffffffff168152602001600081526020016060815260200160608152602001606081525090565b5b808211156141b0576000816000905550600101614198565b5090565b60006141c76141c28461546a565b615445565b9050828152602081018484840111156141df57600080fd5b6141ea8482856156f7565b509392505050565b60006142056142008461549b565b615445565b90508281526020810184848401111561421d57600080fd5b6142288482856156f7565b509392505050565b60008135905061423f81615cb5565b92915050565b60008135905061425481615ccc565b92915050565b60008135905061426981615ce3565b92915050565b60008151905061427e81615ce3565b92915050565b600082601f83011261429557600080fd5b81356142a58482602086016141b4565b91505092915050565b600082601f8301126142bf57600080fd5b81356142cf8482602086016141f2565b91505092915050565b6000813590506142e781615cfa565b92915050565b6000602082840312156142ff57600080fd5b600061430d84828501614230565b91505092915050565b6000806040838503121561432957600080fd5b600061433785828601614230565b925050602061434885828601614230565b9150509250929050565b60008060006060848603121561436757600080fd5b600061437586828701614230565b935050602061438686828701614230565b9250506040614397868287016142d8565b9150509250925092565b600080600080608085870312156143b757600080fd5b60006143c587828801614230565b94505060206143d687828801614230565b93505060406143e7878288016142d8565b925050606085013567ffffffffffffffff81111561440457600080fd5b61441087828801614284565b91505092959194509250565b6000806040838503121561442f57600080fd5b600061443d85828601614230565b925050602061444e85828601614245565b9150509250929050565b6000806040838503121561446b57600080fd5b600061447985828601614230565b925050602083013567ffffffffffffffff81111561449657600080fd5b6144a2858286016142ae565b9150509250929050565b600080604083850312156144bf57600080fd5b60006144cd85828601614230565b92505060206144de858286016142d8565b9150509250929050565b6000602082840312156144fa57600080fd5b60006145088482850161425a565b91505092915050565b60006020828403121561452357600080fd5b60006145318482850161426f565b91505092915050565b6000806000806080858703121561455057600080fd5b600085013567ffffffffffffffff81111561456a57600080fd5b614576878288016142ae565b945050602085013567ffffffffffffffff81111561459357600080fd5b61459f878288016142ae565b935050604085013567ffffffffffffffff8111156145bc57600080fd5b6145c8878288016142ae565b925050606085013567ffffffffffffffff8111156145e557600080fd5b6145f1878288016142ae565b91505092959194509250565b60006020828403121561460f57600080fd5b600061461d848285016142d8565b91505092915050565b6000806000806080858703121561463c57600080fd5b600061464a878288016142d8565b945050602085013567ffffffffffffffff81111561466757600080fd5b614673878288016142ae565b935050604085013567ffffffffffffffff81111561469057600080fd5b61469c878288016142ae565b925050606085013567ffffffffffffffff8111156146b957600080fd5b6146c5878288016142ae565b91505092959194509250565b60006146dd8383614bfd565b905092915050565b60006146f18383614ca7565b905092915050565b60006147058383614d58565b905092915050565b60006147198383614daf565b905092915050565b61472a81615683565b82525050565b61473981615683565b82525050565b600061474a8261550c565b6147548185615582565b935083602082028501614766856154cc565b8060005b858110156147a2578484038952815161478385826146d1565b945061478e8361554e565b925060208a0199505060018101905061476a565b50829750879550505050505092915050565b60006147bf82615517565b6147c98185615593565b9350836020820285016147db856154dc565b8060005b8581101561481757848403895281516147f885826146e5565b94506148038361555b565b925060208a019950506001810190506147df565b50829750879550505050505092915050565b600061483482615522565b61483e81856155a4565b935083602082028501614850856154ec565b8060005b8581101561488c578484038952815161486d85826146f9565b945061487883615568565b925060208a01995050600181019050614854565b50829750879550505050505092915050565b60006148a98261552d565b6148b381856155b5565b9350836020820285016148c5856154fc565b8060005b8581101561490157848403895281516148e2858261470d565b94506148ed83615575565b925060208a019950506001810190506148c9565b50829750879550505050505092915050565b61491c81615695565b82525050565b600061492d82615538565b61493781856155c6565b9350614947818560208601615706565b61495081615872565b840191505092915050565b600061496682615543565b61497081856155d7565b9350614980818560208601615706565b61498981615872565b840191505092915050565b600061499f82615543565b6149a981856155e8565b93506149b9818560208601615706565b6149c281615872565b840191505092915050565b60006149da6032836155e8565b91506149e582615883565b604082019050919050565b60006149fd6026836155e8565b9150614a08826158d2565b604082019050919050565b6000614a20601c836155e8565b9150614a2b82615921565b602082019050919050565b6000614a436024836155e8565b9150614a4e8261594a565b604082019050919050565b6000614a666019836155e8565b9150614a7182615999565b602082019050919050565b6000614a89602c836155e8565b9150614a94826159c2565b604082019050919050565b6000614aac6038836155e8565b9150614ab782615a11565b604082019050919050565b6000614acf602a836155e8565b9150614ada82615a60565b604082019050919050565b6000614af26029836155e8565b9150614afd82615aaf565b604082019050919050565b6000614b156020836155e8565b9150614b2082615afe565b602082019050919050565b6000614b38602c836155e8565b9150614b4382615b27565b604082019050919050565b6000614b5b6020836155e8565b9150614b6682615b76565b602082019050919050565b6000614b7e6029836155e8565b9150614b8982615b9f565b604082019050919050565b6000614ba16021836155e8565b9150614bac82615bee565b604082019050919050565b6000614bc46031836155e8565b9150614bcf82615c3d565b604082019050919050565b6000614be76018836155e8565b9150614bf282615c8c565b602082019050919050565b600060e083016000830151614c156000860182614ed1565b506020830151614c286020860182614ed1565b5060408301518482036040860152614c40828261495b565b9150506060830151614c556060860182614721565b5060808301518482036080860152614c6d828261495b565b91505060a083015184820360a0860152614c87828261495b565b91505060c0830151614c9c60c0860182614ed1565b508091505092915050565b600060e083016000830151614cbf6000860182614ed1565b5060208301518482036020860152614cd7828261495b565b9150506040830151614cec6040860182614721565b506060830151614cff6060860182614ed1565b5060808301518482036080860152614d17828261495b565b91505060a083015184820360a0860152614d31828261495b565b91505060c083015184820360c0860152614d4b828261495b565b9150508091505092915050565b6000606083016000830151614d706000860182614ed1565b5060208301518482036020860152614d88828261495b565b91505060408301518482036040860152614da2828261495b565b9150508091505092915050565b600060e083016000830151614dc76000860182614ed1565b506020830151614dda6020860182614ed1565b5060408301518482036040860152614df2828261495b565b9150506060830151614e076060860182614721565b5060808301518482036080860152614e1f828261495b565b91505060a083015184820360a0860152614e39828261495b565b91505060c0830151614e4e60c0860182614ed1565b508091505092915050565b60006080830160008301518482036000860152614e76828261495b565b91505060208301518482036020860152614e90828261495b565b91505060408301518482036040860152614eaa828261495b565b91505060608301518482036060860152614ec4828261495b565b9150508091505092915050565b614eda816156ed565b82525050565b614ee9816156ed565b82525050565b6000602082019050614f046000830184614730565b92915050565b6000608082019050614f1f6000830187614730565b614f2c6020830186614730565b614f396040830185614ee0565b8181036060830152614f4b8184614922565b905095945050505050565b60006020820190508181036000830152614f70818461473f565b905092915050565b60006020820190508181036000830152614f9281846147b4565b905092915050565b60006020820190508181036000830152614fb48184614829565b905092915050565b60006020820190508181036000830152614fd6818461489e565b905092915050565b6000602082019050614ff36000830184614913565b92915050565b600060208201905081810360008301526150138184614994565b905092915050565b600060c08201905081810360008301526150358189614994565b90506150446020830188614730565b6150516040830187614ee0565b81810360608301526150638186614994565b905081810360808301526150778185614994565b905081810360a083015261508b8184614994565b9050979650505050505050565b600060808201905081810360008301526150b28187614994565b905081810360208301526150c68186614994565b905081810360408301526150da8185614994565b905081810360608301526150ee8184614994565b905095945050505050565b60006020820190508181036000830152615112816149cd565b9050919050565b60006020820190508181036000830152615132816149f0565b9050919050565b6000602082019050818103600083015261515281614a13565b9050919050565b6000602082019050818103600083015261517281614a36565b9050919050565b6000602082019050818103600083015261519281614a59565b9050919050565b600060208201905081810360008301526151b281614a7c565b9050919050565b600060208201905081810360008301526151d281614a9f565b9050919050565b600060208201905081810360008301526151f281614ac2565b9050919050565b6000602082019050818103600083015261521281614ae5565b9050919050565b6000602082019050818103600083015261523281614b08565b9050919050565b6000602082019050818103600083015261525281614b2b565b9050919050565b6000602082019050818103600083015261527281614b4e565b9050919050565b6000602082019050818103600083015261529281614b71565b9050919050565b600060208201905081810360008301526152b281614b94565b9050919050565b600060208201905081810360008301526152d281614bb7565b9050919050565b600060208201905081810360008301526152f281614bda565b9050919050565b600060208201905081810360008301526153138184614e59565b905092915050565b60006020820190506153306000830184614ee0565b92915050565b600060e08201905061534b600083018a614ee0565b818103602083015261535d8189614994565b905061536c6040830188614730565b6153796060830187614ee0565b818103608083015261538b8186614994565b905081810360a083015261539f8185614994565b905081810360c08301526153b38184614994565b905098975050505050505050565b600060e0820190506153d6600083018a614ee0565b6153e36020830189614ee0565b81810360408301526153f58188614994565b90506154046060830187614730565b81810360808301526154168186614994565b905081810360a083015261542a8185614994565b905061543960c0830184614ee0565b98975050505050505050565b600061544f615460565b905061545b828261576b565b919050565b6000604051905090565b600067ffffffffffffffff82111561548557615484615843565b5b61548e82615872565b9050602081019050919050565b600067ffffffffffffffff8211156154b6576154b5615843565b5b6154bf82615872565b9050602081019050919050565b6000819050602082019050919050565b6000819050602082019050919050565b6000819050602082019050919050565b6000819050602082019050919050565b600081519050919050565b600081519050919050565b600081519050919050565b600081519050919050565b600081519050919050565b600081519050919050565b6000602082019050919050565b6000602082019050919050565b6000602082019050919050565b6000602082019050919050565b600082825260208201905092915050565b600082825260208201905092915050565b600082825260208201905092915050565b600082825260208201905092915050565b600082825260208201905092915050565b600082825260208201905092915050565b600082825260208201905092915050565b6000615604826156ed565b915061560f836156ed565b9250827fffffffffffffffffffffffffffffffffffffffffffffffffffffffffffffffff03821115615644576156436157e5565b5b828201905092915050565b600061565a826156ed565b9150615665836156ed565b925082821015615678576156776157e5565b5b828203905092915050565b600061568e826156cd565b9050919050565b60008115159050919050565b60007fffffffff0000000000000000000000000000000000000000000000000000000082169050919050565b600073ffffffffffffffffffffffffffffffffffffffff82169050919050565b6000819050919050565b82818337600083830152505050565b60005b83811015615724578082015181840152602081019050615709565b83811115615733576000848401525b50505050565b6000600282049050600182168061575157607f821691505b6020821081141561576557615764615814565b5b50919050565b61577482615872565b810181811067ffffffffffffffff8211171561579357615792615843565b5b80604052505050565b60006157a7826156ed565b91507fffffffffffffffffffffffffffffffffffffffffffffffffffffffffffffffff8214156157da576157d96157e5565b5b600182019050919050565b7f4e487b7100000000000000000000000000000000000000000000000000000000600052601160045260246000fd5b7f4e487b7100000000000000000000000000000000000000000000000000000000600052602260045260246000fd5b7f4e487b7100000000000000000000000000000000000000000000000000000000600052604160045260246000fd5b6000601f19601f8301169050919050565b7f4552433732313a207472616e7366657220746f206e6f6e20455243373231526560008201527f63656976657220696d706c656d656e7465720000000000000000000000000000602082015250565b7f4f776e61626c653a206e6577206f776e657220697320746865207a65726f206160008201527f6464726573730000000000000000000000000000000000000000000000000000602082015250565b7f4552433732313a20746f6b656e20616c7265616479206d696e74656400000000600082015250565b7f4552433732313a207472616e7366657220746f20746865207a65726f2061646460008201527f7265737300000000000000000000000000000000000000000000000000000000602082015250565b7f4552433732313a20617070726f766520746f2063616c6c657200000000000000600082015250565b7f4552433732313a206f70657261746f7220717565727920666f72206e6f6e657860008201527f697374656e7420746f6b656e0000000000000000000000000000000000000000602082015250565b7f4552433732313a20617070726f76652063616c6c6572206973206e6f74206f7760008201527f6e6572206e6f7220617070726f76656420666f7220616c6c0000000000000000602082015250565b7f4552433732313a2062616c616e636520717565727920666f7220746865207a6560008201527f726f206164647265737300000000000000000000000000000000000000000000602082015250565b7f4552433732313a206f776e657220717565727920666f72206e6f6e657869737460008201527f656e7420746f6b656e0000000000000000000000000000000000000000000000602082015250565b7f4552433732313a206d696e7420746f20746865207a65726f2061646472657373600082015250565b7f4552433732313a20617070726f76656420717565727920666f72206e6f6e657860008201527f697374656e7420746f6b656e0000000000000000000000000000000000000000602082015250565b7f4f776e61626c653a2063616c6c6572206973206e6f7420746865206f776e6572600082015250565b7f4552433732313a207472616e73666572206f6620746f6b656e2074686174206960008201527f73206e6f74206f776e0000000000000000000000000000000000000000000000602082015250565b7f4552433732313a20617070726f76616c20746f2063757272656e74206f776e6560008201527f7200000000000000000000000000000000000000000000000000000000000000602082015250565b7f4552433732313a207472616e736665722063616c6c6572206973206e6f74206f60008201527f776e6572206e6f7220617070726f766564000000000000000000000000000000602082015250565b7f555249206e6f74206578697374206f6e20746861742049440000000000000000600082015250565b615cbe81615683565b8114615cc957600080fd5b50565b615cd581615695565b8114615ce057600080fd5b50565b615cec816156a1565b8114615cf757600080fd5b50565b615d03816156ed565b8114615d0e57600080fd5b5056fea26469706673582212205d3dcc8cc477ca0c9924615d3e94cbb1ab1751a191b0fdcbe7833a651f29b8af64736f6c63430008020033",
  "linkReferences": {},
  "deployedLinkReferences": {}
}