{
  "_format": "hh-sol-artifact-1",
  "contractName": "ProfileImageNfts",
  "sourceName": "contracts/MintProfileImage.sol",
  "abi": [
    {
      "inputs": [],
      "stateMutability": "nonpayable",
      "type": "constructor"
    },
    {
      "anonymous": false,
      "inputs": [
        {
          "indexed": true,
          "internalType": "address",
          "name": "owner",
          "type": "address"
        },
        {
          "indexed": true,
          "internalType": "address",
          "name": "approved",
          "type": "address"
        },
        {
          "indexed": true,
          "internalType": "uint256",
          "name": "tokenId",
          "type": "uint256"
        }
      ],
      "name": "Approval",
      "type": "event"
    },
    {
      "anonymous": false,
      "inputs": [
        {
          "indexed": true,
          "internalType": "address",
          "name": "owner",
          "type": "address"
        },
        {
          "indexed": true,
          "internalType": "address",
          "name": "operator",
          "type": "address"
        },
        {
          "indexed": false,
          "internalType": "bool",
          "name": "approved",
          "type": "bool"
        }
      ],
      "name": "ApprovalForAll",
      "type": "event"
    },
    {
      "anonymous": false,
      "inputs": [
        {
          "indexed": false,
          "internalType": "uint32",
          "name": "postId",
          "type": "uint32"
        },
        {
          "indexed": false,
          "internalType": "uint32",
          "name": "id",
          "type": "uint32"
        },
        {
          "indexed": false,
          "internalType": "string",
          "name": "authorName",
          "type": "string"
        },
        {
          "indexed": false,
          "internalType": "address",
          "name": "author",
          "type": "address"
        },
        {
          "indexed": false,
          "internalType": "string",
          "name": "authorImageUrl",
          "type": "string"
        },
        {
          "indexed": false,
          "internalType": "string",
          "name": "text",
          "type": "string"
        },
        {
          "indexed": false,
          "internalType": "uint256",
          "name": "timestamp",
          "type": "uint256"
        }
      ],
      "name": "CommentCreated",
      "type": "event"
    },
    {
      "anonymous": false,
      "inputs": [
        {
          "indexed": true,
          "internalType": "address",
          "name": "previousOwner",
          "type": "address"
        },
        {
          "indexed": true,
          "internalType": "address",
          "name": "newOwner",
          "type": "address"
        }
      ],
      "name": "OwnershipTransferred",
      "type": "event"
    },
    {
      "anonymous": false,
      "inputs": [
        {
          "indexed": false,
          "internalType": "string",
          "name": "username",
          "type": "string"
        },
        {
          "indexed": false,
          "internalType": "address",
          "name": "author",
          "type": "address"
        },
        {
          "indexed": false,
          "internalType": "uint256",
          "name": "timestamp",
          "type": "uint256"
        },
        {
          "indexed": false,
          "internalType": "string",
          "name": "text",
          "type": "string"
        },
        {
          "indexed": false,
          "internalType": "string",
          "name": "imageUrl",
          "type": "string"
        },
        {
          "indexed": false,
          "internalType": "string",
          "name": "authorImageUrl",
          "type": "string"
        }
      ],
      "name": "PostCreated",
      "type": "event"
    },
    {
      "anonymous": false,
      "inputs": [
        {
          "indexed": false,
          "internalType": "uint32",
          "name": "commentId",
          "type": "uint32"
        },
        {
          "indexed": false,
          "internalType": "uint32",
          "name": "id",
          "type": "uint32"
        },
        {
          "indexed": false,
          "internalType": "string",
          "name": "authorName",
          "type": "string"
        },
        {
          "indexed": false,
          "internalType": "address",
          "name": "author",
          "type": "address"
        },
        {
          "indexed": false,
          "internalType": "string",
          "name": "authorImageUrl",
          "type": "string"
        },
        {
          "indexed": false,
          "internalType": "string",
          "name": "text",
          "type": "string"
        },
        {
          "indexed": false,
          "internalType": "uint256",
          "name": "timestamp",
          "type": "uint256"
        }
      ],
      "name": "ReplyCreated",
      "type": "event"
    },
    {
      "anonymous": false,
      "inputs": [
        {
          "indexed": true,
          "internalType": "address",
          "name": "from",
          "type": "address"
        },
        {
          "indexed": true,
          "internalType": "address",
          "name": "to",
          "type": "address"
        },
        {
          "indexed": true,
          "internalType": "uint256",
          "name": "tokenId",
          "type": "uint256"
        }
      ],
      "name": "Transfer",
      "type": "event"
    },
    {
      "anonymous": false,
      "inputs": [
        {
          "indexed": true,
          "internalType": "address",
          "name": "user",
          "type": "address"
        },
        {
          "indexed": false,
          "internalType": "string",
          "name": "name",
          "type": "string"
        },
        {
          "indexed": false,
          "internalType": "string",
          "name": "walletAddress",
          "type": "string"
        },
        {
          "indexed": false,
          "internalType": "string",
          "name": "profileImage",
          "type": "string"
        },
        {
          "indexed": false,
          "internalType": "string",
          "name": "coverImage",
          "type": "string"
        }
      ],
      "name": "UserProfileCreated",
      "type": "event"
    },
    {
      "anonymous": false,
      "inputs": [
        {
          "indexed": true,
          "internalType": "address",
          "name": "user",
          "type": "address"
        },
        {
          "indexed": false,
          "internalType": "string",
          "name": "name",
          "type": "string"
        },
        {
          "indexed": false,
          "internalType": "string",
          "name": "walletAddress",
          "type": "string"
        },
        {
          "indexed": false,
          "internalType": "string",
          "name": "profileImage",
          "type": "string"
        },
        {
          "indexed": false,
          "internalType": "string",
          "name": "coverImage",
          "type": "string"
        }
      ],
      "name": "UserProfileUpdated",
      "type": "event"
    },
    {
      "inputs": [
        {
          "internalType": "address",
          "name": "to",
          "type": "address"
        },
        {
          "internalType": "uint256",
          "name": "tokenId",
          "type": "uint256"
        }
      ],
      "name": "approve",
      "outputs": [],
      "stateMutability": "nonpayable",
      "type": "function"
    },
    {
      "inputs": [
        {
          "internalType": "address",
          "name": "owner",
          "type": "address"
        }
      ],
      "name": "balanceOf",
      "outputs": [
        {
          "internalType": "uint256",
          "name": "",
          "type": "uint256"
        }
      ],
      "stateMutability": "view",
      "type": "function"
    },
    {
      "inputs": [
        {
          "internalType": "uint256",
          "name": "",
          "type": "uint256"
        }
      ],
      "name": "comments",
      "outputs": [
        {
          "internalType": "uint32",
          "name": "id",
          "type": "uint32"
        },
        {
          "internalType": "uint32",
          "name": "postId",
          "type": "uint32"
        },
        {
          "internalType": "string",
          "name": "authorName",
          "type": "string"
        },
        {
          "internalType": "address",
          "name": "author",
          "type": "address"
        },
        {
          "internalType": "string",
          "name": "authorImageUrl",
          "type": "string"
        },
        {
          "internalType": "string",
          "name": "text",
          "type": "string"
        },
        {
          "internalType": "uint256",
          "name": "timestamp",
          "type": "uint256"
        }
      ],
      "stateMutability": "view",
      "type": "function"
    },
    {
      "inputs": [
        {
          "internalType": "uint32",
          "name": "_postId",
          "type": "uint32"
        },
        {
          "internalType": "string",
          "name": "_authorName",
          "type": "string"
        },
        {
          "internalType": "string",
          "name": "_authorImageUrl",
          "type": "string"
        },
        {
          "internalType": "string",
          "name": "_text",
          "type": "string"
        }
      ],
      "name": "createComment",
      "outputs": [],
      "stateMutability": "nonpayable",
      "type": "function"
    },
    {
      "inputs": [
        {
          "internalType": "string",
          "name": "_username",
          "type": "string"
        },
        {
          "internalType": "string",
          "name": "_text",
          "type": "string"
        },
        {
          "internalType": "string",
          "name": "_imageUrl",
          "type": "string"
        },
        {
          "internalType": "string",
          "name": "_authorImageUrl",
          "type": "string"
        }
      ],
      "name": "createPost",
      "outputs": [],
      "stateMutability": "nonpayable",
      "type": "function"
    },
    {
      "inputs": [
        {
          "internalType": "uint32",
          "name": "_commentId",
          "type": "uint32"
        },
        {
          "internalType": "string",
          "name": "_authorName",
          "type": "string"
        },
        {
          "internalType": "string",
          "name": "_authorImageUrl",
          "type": "string"
        },
        {
          "internalType": "string",
          "name": "_text",
          "type": "string"
        }
      ],
      "name": "createReply",
      "outputs": [],
      "stateMutability": "nonpayable",
      "type": "function"
    },
    {
      "inputs": [
        {
          "internalType": "string",
          "name": "_name",
          "type": "string"
        },
        {
          "internalType": "string",
          "name": "_walletAddress",
          "type": "string"
        },
        {
          "internalType": "string",
          "name": "_profileImage",
          "type": "string"
        },
        {
          "internalType": "string",
          "name": "_coverImage",
          "type": "string"
        }
      ],
      "name": "createUserProfile",
      "outputs": [],
      "stateMutability": "nonpayable",
      "type": "function"
    },
    {
      "inputs": [],
      "name": "getAlltoken",
      "outputs": [
        {
          "components": [
            {
              "internalType": "uint256",
              "name": "id",
              "type": "uint256"
            },
            {
              "internalType": "string",
              "name": "uri",
              "type": "string"
            },
            {
              "internalType": "string",
              "name": "space",
              "type": "string"
            }
          ],
          "internalType": "struct ProfileImageNfts.RenderToken[]",
          "name": "",
          "type": "tuple[]"
        }
      ],
      "stateMutability": "view",
      "type": "function"
    },
    {
      "inputs": [
        {
          "internalType": "uint256",
          "name": "tokenId",
          "type": "uint256"
        }
      ],
      "name": "getApproved",
      "outputs": [
        {
          "internalType": "address",
          "name": "",
          "type": "address"
        }
      ],
      "stateMutability": "view",
      "type": "function"
    },
    {
      "inputs": [
        {
          "internalType": "uint32",
          "name": "_postId",
          "type": "uint32"
        }
      ],
      "name": "getCommentsByPostId",
      "outputs": [
        {
          "components": [
            {
              "internalType": "uint32",
              "name": "id",
              "type": "uint32"
            },
            {
              "internalType": "uint32",
              "name": "postId",
              "type": "uint32"
            },
            {
              "internalType": "string",
              "name": "authorName",
              "type": "string"
            },
            {
              "internalType": "address",
              "name": "author",
              "type": "address"
            },
            {
              "internalType": "string",
              "name": "authorImageUrl",
              "type": "string"
            },
            {
              "internalType": "string",
              "name": "text",
              "type": "string"
            },
            {
              "internalType": "uint256",
              "name": "timestamp",
              "type": "uint256"
            }
          ],
          "internalType": "struct ProfileImageNfts.Comment[]",
          "name": "",
          "type": "tuple[]"
        }
      ],
      "stateMutability": "view",
      "type": "function"
    },
    {
      "inputs": [],
      "name": "getPosts",
      "outputs": [
        {
          "components": [
            {
              "internalType": "uint32",
              "name": "id",
              "type": "uint32"
            },
            {
              "internalType": "string",
              "name": "username",
              "type": "string"
            },
            {
              "internalType": "address",
              "name": "author",
              "type": "address"
            },
            {
              "internalType": "uint256",
              "name": "timestamp",
              "type": "uint256"
            },
            {
              "internalType": "string",
              "name": "text",
              "type": "string"
            },
            {
              "internalType": "string",
              "name": "imageUrl",
              "type": "string"
            },
            {
              "internalType": "string",
              "name": "authorImageUrl",
              "type": "string"
            }
          ],
          "internalType": "struct ProfileImageNfts.Post[]",
          "name": "",
          "type": "tuple[]"
        }
      ],
      "stateMutability": "view",
      "type": "function"
    },
    {
      "inputs": [
        {
          "internalType": "uint32",
          "name": "_commentId",
          "type": "uint32"
        }
      ],
      "name": "getRepliesByCommentId",
      "outputs": [
        {
          "components": [
            {
              "internalType": "uint32",
              "name": "id",
              "type": "uint32"
            },
            {
              "internalType": "uint32",
              "name": "commentId",
              "type": "uint32"
            },
            {
              "internalType": "string",
              "name": "authorName",
              "type": "string"
            },
            {
              "internalType": "address",
              "name": "author",
              "type": "address"
            },
            {
              "internalType": "string",
              "name": "authorImageUrl",
              "type": "string"
            },
            {
              "internalType": "string",
              "name": "text",
              "type": "string"
            },
            {
              "internalType": "uint256",
              "name": "timestamp",
              "type": "uint256"
            }
          ],
          "internalType": "struct ProfileImageNfts.Reply[]",
          "name": "",
          "type": "tuple[]"
        }
      ],
      "stateMutability": "view",
      "type": "function"
    },
    {
      "inputs": [],
      "name": "getUserPosts",
      "outputs": [
        {
          "components": [
            {
              "internalType": "uint32",
              "name": "id",
              "type": "uint32"
            },
            {
              "internalType": "string",
              "name": "username",
              "type": "string"
            },
            {
              "internalType": "address",
              "name": "author",
              "type": "address"
            },
            {
              "internalType": "uint256",
              "name": "timestamp",
              "type": "uint256"
            },
            {
              "internalType": "string",
              "name": "text",
              "type": "string"
            },
            {
              "internalType": "string",
              "name": "imageUrl",
              "type": "string"
            },
            {
              "internalType": "string",
              "name": "authorImageUrl",
              "type": "string"
            }
          ],
          "internalType": "struct ProfileImageNfts.Post[]",
          "name": "",
          "type": "tuple[]"
        }
      ],
      "stateMutability": "view",
      "type": "function"
    },
    {
      "inputs": [
        {
          "internalType": "address",
          "name": "_user",
          "type": "address"
        }
      ],
      "name": "getUserProfile",
      "outputs": [
        {
          "components": [
            {
              "internalType": "string",
              "name": "name",
              "type": "string"
            },
            {
              "internalType": "string",
              "name": "walletAddress",
              "type": "string"
            },
            {
              "internalType": "string",
              "name": "profileImage",
              "type": "string"
            },
            {
              "internalType": "string",
              "name": "coverImage",
              "type": "string"
            }
          ],
          "internalType": "struct ProfileImageNfts.UserProfile",
          "name": "",
          "type": "tuple"
        }
      ],
      "stateMutability": "view",
      "type": "function"
    },
    {
      "inputs": [
        {
          "internalType": "address",
          "name": "owner",
          "type": "address"
        },
        {
          "internalType": "address",
          "name": "operator",
          "type": "address"
        }
      ],
      "name": "isApprovedForAll",
      "outputs": [
        {
          "internalType": "bool",
          "name": "",
          "type": "bool"
        }
      ],
      "stateMutability": "view",
      "type": "function"
    },
    {
      "inputs": [
        {
          "internalType": "address",
          "name": "recipents",
          "type": "address"
        },
        {
          "internalType": "string",
          "name": "_uri",
          "type": "string"
        }
      ],
      "name": "mint",
      "outputs": [
        {
          "internalType": "uint256",
          "name": "",
          "type": "uint256"
        }
      ],
      "stateMutability": "nonpayable",
      "type": "function"
    },
    {
      "inputs": [],
      "name": "name",
      "outputs": [
        {
          "internalType": "string",
          "name": "",
          "type": "string"
        }
      ],
      "stateMutability": "view",
      "type": "function"
    },
    {
      "inputs": [],
      "name": "owner",
      "outputs": [
        {
          "internalType": "address",
          "name": "",
          "type": "address"
        }
      ],
      "stateMutability": "view",
      "type": "function"
    },
    {
      "inputs": [
        {
          "internalType": "uint256",
          "name": "tokenId",
          "type": "uint256"
        }
      ],
      "name": "ownerOf",
      "outputs": [
        {
          "internalType": "address",
          "name": "",
          "type": "address"
        }
      ],
      "stateMutability": "view",
      "type": "function"
    },
    {
      "inputs": [
        {
          "internalType": "uint256",
          "name": "",
          "type": "uint256"
        }
      ],
      "name": "posts",
      "outputs": [
        {
          "internalType": "uint32",
          "name": "id",
          "type": "uint32"
        },
        {
          "internalType": "string",
          "name": "username",
          "type": "string"
        },
        {
          "internalType": "address",
          "name": "author",
          "type": "address"
        },
        {
          "internalType": "uint256",
          "name": "timestamp",
          "type": "uint256"
        },
        {
          "internalType": "string",
          "name": "text",
          "type": "string"
        },
        {
          "internalType": "string",
          "name": "imageUrl",
          "type": "string"
        },
        {
          "internalType": "string",
          "name": "authorImageUrl",
          "type": "string"
        }
      ],
      "stateMutability": "view",
      "type": "function"
    },
    {
      "inputs": [],
      "name": "renounceOwnership",
      "outputs": [],
      "stateMutability": "nonpayable",
      "type": "function"
    },
    {
      "inputs": [
        {
          "internalType": "uint256",
          "name": "",
          "type": "uint256"
        }
      ],
      "name": "replies",
      "outputs": [
        {
          "internalType": "uint32",
          "name": "id",
          "type": "uint32"
        },
        {
          "internalType": "uint32",
          "name": "commentId",
          "type": "uint32"
        },
        {
          "internalType": "string",
          "name": "authorName",
          "type": "string"
        },
        {
          "internalType": "address",
          "name": "author",
          "type": "address"
        },
        {
          "internalType": "string",
          "name": "authorImageUrl",
          "type": "string"
        },
        {
          "internalType": "string",
          "name": "text",
          "type": "string"
        },
        {
          "internalType": "uint256",
          "name": "timestamp",
          "type": "uint256"
        }
      ],
      "stateMutability": "view",
      "type": "function"
    },
    {
      "inputs": [
        {
          "internalType": "address",
          "name": "from",
          "type": "address"
        },
        {
          "internalType": "address",
          "name": "to",
          "type": "address"
        },
        {
          "internalType": "uint256",
          "name": "tokenId",
          "type": "uint256"
        }
      ],
      "name": "safeTransferFrom",
      "outputs": [],
      "stateMutability": "nonpayable",
      "type": "function"
    },
    {
      "inputs": [
        {
          "internalType": "address",
          "name": "from",
          "type": "address"
        },
        {
          "internalType": "address",
          "name": "to",
          "type": "address"
        },
        {
          "internalType": "uint256",
          "name": "tokenId",
          "type": "uint256"
        },
        {
          "internalType": "bytes",
          "name": "_data",
          "type": "bytes"
        }
      ],
      "name": "safeTransferFrom",
      "outputs": [],
      "stateMutability": "nonpayable",
      "type": "function"
    },
    {
      "inputs": [
        {
          "internalType": "address",
          "name": "operator",
          "type": "address"
        },
        {
          "internalType": "bool",
          "name": "approved",
          "type": "bool"
        }
      ],
      "name": "setApprovalForAll",
      "outputs": [],
      "stateMutability": "nonpayable",
      "type": "function"
    },
    {
      "inputs": [
        {
          "internalType": "bytes4",
          "name": "interfaceId",
          "type": "bytes4"
        }
      ],
      "name": "supportsInterface",
      "outputs": [
        {
          "internalType": "bool",
          "name": "",
          "type": "bool"
        }
      ],
      "stateMutability": "view",
      "type": "function"
    },
    {
      "inputs": [],
      "name": "symbol",
      "outputs": [
        {
          "internalType": "string",
          "name": "",
          "type": "string"
        }
      ],
      "stateMutability": "view",
      "type": "function"
    },
    {
      "inputs": [
        {
          "internalType": "uint256",
          "name": "tokenId",
          "type": "uint256"
        }
      ],
      "name": "tokenURI",
      "outputs": [
        {
          "internalType": "string",
          "name": "",
          "type": "string"
        }
      ],
      "stateMutability": "view",
      "type": "function"
    },
    {
      "inputs": [
        {
          "internalType": "address",
          "name": "from",
          "type": "address"
        },
        {
          "internalType": "address",
          "name": "to",
          "type": "address"
        },
        {
          "internalType": "uint256",
          "name": "tokenId",
          "type": "uint256"
        }
      ],
      "name": "transferFrom",
      "outputs": [],
      "stateMutability": "nonpayable",
      "type": "function"
    },
    {
      "inputs": [
        {
          "internalType": "address",
          "name": "newOwner",
          "type": "address"
        }
      ],
      "name": "transferOwnership",
      "outputs": [],
      "stateMutability": "nonpayable",
      "type": "function"
    },
    {
      "inputs": [
        {
          "internalType": "string",
          "name": "_name",
          "type": "string"
        },
        {
          "internalType": "string",
          "name": "_walletAddress",
          "type": "string"
        },
        {
          "internalType": "string",
          "name": "_profileImage",
          "type": "string"
        },
        {
          "internalType": "string",
          "name": "_coverImage",
          "type": "string"
        }
      ],
      "name": "updateUserProfile",
      "outputs": [],
      "stateMutability": "nonpayable",
      "type": "function"
    }
  ],
  "bytecode": "0x60806040526008805463ffffffff60401b1963ffffffff60201b1963ffffffff19909216600117919091166401000000001716680100000000000000001790553480156200004c57600080fd5b50604080518082018252601081526f50726f66696c65496d6167654e66747360801b6020808301918252835180850190945260038452622824a760e91b908401528151919291620000a0916000916200012f565b508051620000b69060019060208401906200012f565b505050620000d3620000cd620000d960201b60201c565b620000dd565b62000212565b3390565b600680546001600160a01b038381166001600160a01b0319831681179093556040519116919082907f8be0079c531659141344cd1fd0a4f28419497f9722a3daafe3b4186f6b6457e090600090a35050565b8280546200013d90620001d5565b90600052602060002090601f016020900481019282620001615760008555620001ac565b82601f106200017c57805160ff1916838001178555620001ac565b82800160010185558215620001ac579182015b82811115620001ac5782518255916020019190600101906200018f565b50620001ba929150620001be565b5090565b5b80821115620001ba5760008155600101620001bf565b600281046001821680620001ea57607f821691505b602082108114156200020c57634e487b7160e01b600052602260045260246000fd5b50919050565b613e6080620002226000396000f3fe608060405234801561001057600080fd5b50600436106101e55760003560e01c806370a082311161010f578063a22cb465116100a2578063d0def52111610071578063d0def52114610458578063e985e9c51461046b578063ecb88548146104a7578063f2fde38b146104ba576101e5565b8063a22cb46514610417578063b88d4fde1461042a578063c87b56dd1461043d578063cc4ef2cc14610450576101e5565b80638ebb4c15116100de5780638ebb4c15146103bc57806395d89b41146103cf578063987ee156146103d75780639d538251146103f7576101e5565b806370a082311461036f578063715018a61461039057806379726074146103985780638da5cb5b146103ab576101e5565b806323b872dd116101875780635c0322e0116101565780635c0322e0146103035780635c7c366d146103235780636352211e14610349578063695f7f5e1461035c576101e5565b806323b872dd146102b357806328904431146102c657806341f3004a146102db57806342842e0e146102f0576101e5565b8063095ea7b3116101c3578063095ea7b3146102525780630b1e7f83146102675780630d57f91f1461028d5780631a0468b3146102a0576101e5565b806301ffc9a7146101ea57806306fdde0314610212578063081812fc14610227575b600080fd5b6101fd6101f83660046135d9565b6104cd565b60405190151581526020015b60405180910390f35b61021a610521565b6040516102099190613a53565b61023a6102353660046136ad565b6105b3565b6040516001600160a01b039091168152602001610209565b6102656102603660046135b0565b61064d565b005b61027a6102753660046136ad565b610763565b6040516102099796959493929190613c4f565b61026561029b366004613611565b6109e6565b6102656102ae3660046136df565b610ba5565b6102656102c1366004613476565b610d67565b6102ce610d98565b6040516102099190613980565b6102e3610ed6565b6040516102099190613890565b6102656102fe366004613476565b6111b1565b6103166103113660046136c5565b6111cc565b6040516102099190613830565b6103366103313660046136ad565b6115e2565b6040516102099796959493929190613ccc565b61023a6103573660046136ad565b6117e4565b61026561036a366004613611565b61185b565b61038261037d36600461342a565b61193a565b604051908152602001610209565b6102656119c1565b6102656103a6366004613611565b611a27565b6006546001600160a01b031661023a565b6103366103ca3660046136ad565b611c99565b61021a611ca9565b6103ea6103e536600461342a565b611cb8565b6040516102099190613bd1565b61040a6104053660046136c5565b611f54565b6040516102099190613a00565b61026561042536600461352a565b612360565b6102656104383660046134b1565b61236f565b61021a61044b3660046136ad565b6123a7565b6102e36124ad565b610382610466366004613564565b612942565b6101fd610479366004613444565b6001600160a01b03918216600090815260056020908152604080832093909416825291909152205460ff1690565b6102656104b53660046136df565b612979565b6102656104c836600461342a565b612b3f565b60006001600160e01b031982166380ac58cd60e01b14806104fe57506001600160e01b03198216635b5e139f60e01b145b8061051957506301ffc9a760e01b6001600160e01b03198316145b90505b919050565b60606000805461053090613d6e565b80601f016020809104026020016040519081016040528092919081815260200182805461055c90613d6e565b80156105a95780601f1061057e576101008083540402835291602001916105a9565b820191906000526020600020905b81548152906001019060200180831161058c57829003601f168201915b5050505050905090565b6000818152600260205260408120546001600160a01b03166106315760405162461bcd60e51b815260206004820152602c60248201527f4552433732313a20617070726f76656420717565727920666f72206e6f6e657860448201526b34b9ba32b73a103a37b5b2b760a11b60648201526084015b60405180910390fd5b506000908152600460205260409020546001600160a01b031690565b6000610658826117e4565b9050806001600160a01b0316836001600160a01b031614156106c65760405162461bcd60e51b815260206004820152602160248201527f4552433732313a20617070726f76616c20746f2063757272656e74206f776e656044820152603960f91b6064820152608401610628565b336001600160a01b03821614806106e257506106e28133610479565b6107545760405162461bcd60e51b815260206004820152603860248201527f4552433732313a20617070726f76652063616c6c6572206973206e6f74206f7760448201527f6e6572206e6f7220617070726f76656420666f7220616c6c00000000000000006064820152608401610628565b61075e8383612c0a565b505050565b600a818154811061077357600080fd5b60009182526020909120600790910201805460018201805463ffffffff90921693509061079f90613d6e565b80601f01602080910402602001604051908101604052809291908181526020018280546107cb90613d6e565b80156108185780601f106107ed57610100808354040283529160200191610818565b820191906000526020600020905b8154815290600101906020018083116107fb57829003601f168201915b505050506002830154600384015460048501805494956001600160a01b03909316949193509061084790613d6e565b80601f016020809104026020016040519081016040528092919081815260200182805461087390613d6e565b80156108c05780601f10610895576101008083540402835291602001916108c0565b820191906000526020600020905b8154815290600101906020018083116108a357829003601f168201915b5050505050908060050180546108d590613d6e565b80601f016020809104026020016040519081016040528092919081815260200182805461090190613d6e565b801561094e5780601f106109235761010080835404028352916020019161094e565b820191906000526020600020905b81548152906001019060200180831161093157829003601f168201915b50505050509080600601805461096390613d6e565b80601f016020809104026020016040519081016040528092919081815260200182805461098f90613d6e565b80156109dc5780601f106109b1576101008083540402835291602001916109dc565b820191906000526020600020905b8154815290600101906020018083116109bf57829003601f168201915b5050505050905087565b6008805463ffffffff1690819060006109fe83613dc4565b82546101009290920a63ffffffff8181021990931691831602179091556040805160e081018252848316815260208082018a815233938301939093524260608301526080820189905260a0820188905260c08201879052600a805460018101825560009190915282517fc65a7bb8d6351c1cf70c95a316cc6a92839c986682d98bc35f958f4883f9d2a86007909202918201805463ffffffff19169190961617855592518051929550610ad6937fc65a7bb8d6351c1cf70c95a316cc6a92839c986682d98bc35f958f4883f9d2a901929101906132d1565b5060408201516002820180546001600160a01b0319166001600160a01b039092169190911790556060820151600382015560808201518051610b229160048401916020909101906132d1565b5060a08201518051610b3e9160058401916020909101906132d1565b5060c08201518051610b5a9160068401916020909101906132d1565b5050507f3d2c942797a8eb02631fa68384abfd204eabd8bd20866ece0935f521a368e160853342878787604051610b9696959493929190613a66565b60405180910390a15050505050565b60088054600160201b900463ffffffff169081906004610bc483613dc4565b82546101009290920a63ffffffff8181021990931691831602179091556040805160e081018252848316815288831660208083019182529282018981523360608401526080830189905260a083018890524260c0840152600b805460018101825560009190915283517f0175b7a638427703f0dbe7bb9bbf987a2551717b34e79f33b5b1008d1fa01db960069092029182018054945163ffffffff199095169188169190911767ffffffff000000001916600160201b94909716939093029590951782555180519295509093610cc1937f0175b7a638427703f0dbe7bb9bbf987a2551717b34e79f33b5b1008d1fa01dba909101929101906132d1565b5060608201516002820180546001600160a01b0319166001600160a01b0390921691909117905560808201518051610d039160038401916020909101906132d1565b5060a08201518051610d1f9160048401916020909101906132d1565b5060c0820151816005015550507f6887cd1c6219872eeccde69bec7ec0b2beb0ce6c2f927c9d847568f80752f25885828633878742604051610b969796959493929190613ccc565b610d713382612c78565b610d8d5760405162461bcd60e51b815260040161062890613b80565b61075e838383612d6f565b60606000610da560075490565b905060008167ffffffffffffffff811115610dd057634e487b7160e01b600052604160045260246000fd5b604051908082528060200260200182016040528015610e2557816020015b610e1260405180606001604052806000815260200160608152602001606081525090565b815260200190600190039081610dee5790505b50905060005b828111610ecf576000818152600260205260409020546001600160a01b031615610ebd576000610e5a826123a7565b90506040518060600160405280838152602001828152602001604051806040016040528060018152602001600160fd1b815250815250838381518110610eb057634e487b7160e01b600052603260045260246000fd5b6020026020010181905250505b80610ec781613da9565b915050610e2b565b5091505090565b6060600a805480602002602001604051908101604052809291908181526020016000905b828210156111a85760008481526020908190206040805160e0810190915260078502909101805463ffffffff1682526001810180549293919291840191610f4090613d6e565b80601f0160208091040260200160405190810160405280929190818152602001828054610f6c90613d6e565b8015610fb95780601f10610f8e57610100808354040283529160200191610fb9565b820191906000526020600020905b815481529060010190602001808311610f9c57829003601f168201915b505050918352505060028201546001600160a01b0316602082015260038201546040820152600482018054606090920191610ff390613d6e565b80601f016020809104026020016040519081016040528092919081815260200182805461101f90613d6e565b801561106c5780601f106110415761010080835404028352916020019161106c565b820191906000526020600020905b81548152906001019060200180831161104f57829003601f168201915b5050505050815260200160058201805461108590613d6e565b80601f01602080910402602001604051908101604052809291908181526020018280546110b190613d6e565b80156110fe5780601f106110d3576101008083540402835291602001916110fe565b820191906000526020600020905b8154815290600101906020018083116110e157829003601f168201915b5050505050815260200160068201805461111790613d6e565b80601f016020809104026020016040519081016040528092919081815260200182805461114390613d6e565b80156111905780601f1061116557610100808354040283529160200191611190565b820191906000526020600020905b81548152906001019060200180831161117357829003601f168201915b50505050508152505081526020019060010190610efa565b50505050905090565b61075e8383836040518060200160405280600081525061236f565b60606000805b600b54811015611248578363ffffffff16600b828154811061120457634e487b7160e01b600052603260045260246000fd5b6000918252602090912060069091020154600160201b900463ffffffff161415611236578161123281613da9565b9250505b8061124081613da9565b9150506111d2565b5060008167ffffffffffffffff81111561127257634e487b7160e01b600052604160045260246000fd5b6040519080825280602002602001820160405280156112f857816020015b6112e56040518060e00160405280600063ffffffff168152602001600063ffffffff1681526020016060815260200160006001600160a01b031681526020016060815260200160608152602001600081525090565b8152602001906001900390816112905790505b5090506000805b600b548110156115d8578563ffffffff16600b828154811061133157634e487b7160e01b600052603260045260246000fd5b6000918252602090912060069091020154600160201b900463ffffffff1614156115c657600b818154811061137657634e487b7160e01b600052603260045260246000fd5b60009182526020918290206040805160e0810182526006909302909101805463ffffffff8082168552600160201b9091041693830193909352600183018054929392918401916113c590613d6e565b80601f01602080910402602001604051908101604052809291908181526020018280546113f190613d6e565b801561143e5780601f106114135761010080835404028352916020019161143e565b820191906000526020600020905b81548152906001019060200180831161142157829003601f168201915b505050918352505060028201546001600160a01b0316602082015260038201805460409092019161146e90613d6e565b80601f016020809104026020016040519081016040528092919081815260200182805461149a90613d6e565b80156114e75780601f106114bc576101008083540402835291602001916114e7565b820191906000526020600020905b8154815290600101906020018083116114ca57829003601f168201915b5050505050815260200160048201805461150090613d6e565b80601f016020809104026020016040519081016040528092919081815260200182805461152c90613d6e565b80156115795780601f1061154e57610100808354040283529160200191611579565b820191906000526020600020905b81548152906001019060200180831161155c57829003601f168201915b505050505081526020016005820154815250508383815181106115ac57634e487b7160e01b600052603260045260246000fd5b602002602001018190525081806115c290613da9565b9250505b806115d081613da9565b9150506112ff565b5090949350505050565b600c81815481106115f257600080fd5b60009182526020909120600690910201805460018201805463ffffffff8084169550600160201b909304909216929161162a90613d6e565b80601f016020809104026020016040519081016040528092919081815260200182805461165690613d6e565b80156116a35780601f10611678576101008083540402835291602001916116a3565b820191906000526020600020905b81548152906001019060200180831161168657829003601f168201915b505050600284015460038501805494956001600160a01b039092169491935091506116cd90613d6e565b80601f01602080910402602001604051908101604052809291908181526020018280546116f990613d6e565b80156117465780601f1061171b57610100808354040283529160200191611746565b820191906000526020600020905b81548152906001019060200180831161172957829003601f168201915b50505050509080600401805461175b90613d6e565b80601f016020809104026020016040519081016040528092919081815260200182805461178790613d6e565b80156117d45780601f106117a9576101008083540402835291602001916117d4565b820191906000526020600020905b8154815290600101906020018083116117b757829003601f168201915b5050505050908060050154905087565b6000818152600260205260408120546001600160a01b0316806105195760405162461bcd60e51b815260206004820152602960248201527f4552433732313a206f776e657220717565727920666f72206e6f6e657869737460448201526832b73a103a37b5b2b760b91b6064820152608401610628565b60408051608081018252858152602080820186905281830185905260608201849052336000908152600d82529290922081518051929391926118a092849201906132d1565b5060208281015180516118b992600185019201906132d1565b50604082015180516118d59160028401916020909101906132d1565b50606082015180516118f19160038401916020909101906132d1565b50506040513391507f665b1b5e9c537629b88aece147a5ea5c08f4a9fe399e3008dd2cf8151cea8f619061192c908790879087908790613ad6565b60405180910390a250505050565b60006001600160a01b0382166119a55760405162461bcd60e51b815260206004820152602a60248201527f4552433732313a2062616c616e636520717565727920666f7220746865207a65604482015269726f206164647265737360b01b6064820152608401610628565b506001600160a01b031660009081526003602052604090205490565b6006546001600160a01b03163314611a1b5760405162461bcd60e51b815260206004820181905260248201527f4f776e61626c653a2063616c6c6572206973206e6f7420746865206f776e65726044820152606401610628565b611a256000612f0f565b565b336000908152600d602052604090208451611aca5780548190611a4990613d6e565b80601f0160208091040260200160405190810160405280929190818152602001828054611a7590613d6e565b8015611ac25780601f10611a9757610100808354040283529160200191611ac2565b820191906000526020600020905b815481529060010190602001808311611aa557829003601f168201915b505050505094505b8251611b6057806002018054611adf90613d6e565b80601f0160208091040260200160405190810160405280929190818152602001828054611b0b90613d6e565b8015611b585780601f10611b2d57610100808354040283529160200191611b58565b820191906000526020600020905b815481529060010190602001808311611b3b57829003601f168201915b505050505092505b8151611bf657806003018054611b7590613d6e565b80601f0160208091040260200160405190810160405280929190818152602001828054611ba190613d6e565b8015611bee5780601f10611bc357610100808354040283529160200191611bee565b820191906000526020600020905b815481529060010190602001808311611bd157829003601f168201915b505050505091505b8451611c0890829060208801906132d1565b508351611c1e90600183019060208701906132d1565b508251611c3490600283019060208601906132d1565b508151611c4a90600383019060208501906132d1565b50336001600160a01b03167fb492166838a13bd7d8be9f3425f4e7d0cf5aa2e551333f07be090f1c6b89ddbd86868686604051611c8a9493929190613ad6565b60405180910390a25050505050565b600b81815481106115f257600080fd5b60606001805461053090613d6e565b611ce36040518060800160405280606081526020016060815260200160608152602001606081525090565b6001600160a01b0382166000908152600d602052604090819020815160808101909252805482908290611d1590613d6e565b80601f0160208091040260200160405190810160405280929190818152602001828054611d4190613d6e565b8015611d8e5780601f10611d6357610100808354040283529160200191611d8e565b820191906000526020600020905b815481529060010190602001808311611d7157829003601f168201915b50505050508152602001600182018054611da790613d6e565b80601f0160208091040260200160405190810160405280929190818152602001828054611dd390613d6e565b8015611e205780601f10611df557610100808354040283529160200191611e20565b820191906000526020600020905b815481529060010190602001808311611e0357829003601f168201915b50505050508152602001600282018054611e3990613d6e565b80601f0160208091040260200160405190810160405280929190818152602001828054611e6590613d6e565b8015611eb25780601f10611e8757610100808354040283529160200191611eb2565b820191906000526020600020905b815481529060010190602001808311611e9557829003601f168201915b50505050508152602001600382018054611ecb90613d6e565b80601f0160208091040260200160405190810160405280929190818152602001828054611ef790613d6e565b8015611f445780601f10611f1957610100808354040283529160200191611f44565b820191906000526020600020905b815481529060010190602001808311611f2757829003601f168201915b5050505050815250509050919050565b60606000805b600c54811015611fd0578363ffffffff16600c8281548110611f8c57634e487b7160e01b600052603260045260246000fd5b6000918252602090912060069091020154600160201b900463ffffffff161415611fbe5781611fba81613da9565b9250505b80611fc881613da9565b915050611f5a565b5060008167ffffffffffffffff811115611ffa57634e487b7160e01b600052604160045260246000fd5b60405190808252806020026020018201604052801561208057816020015b61206d6040518060e00160405280600063ffffffff168152602001600063ffffffff1681526020016060815260200160006001600160a01b031681526020016060815260200160608152602001600081525090565b8152602001906001900390816120185790505b5090506000805b600c548110156115d8578563ffffffff16600c82815481106120b957634e487b7160e01b600052603260045260246000fd5b6000918252602090912060069091020154600160201b900463ffffffff16141561234e57600c81815481106120fe57634e487b7160e01b600052603260045260246000fd5b60009182526020918290206040805160e0810182526006909302909101805463ffffffff8082168552600160201b90910416938301939093526001830180549293929184019161214d90613d6e565b80601f016020809104026020016040519081016040528092919081815260200182805461217990613d6e565b80156121c65780601f1061219b576101008083540402835291602001916121c6565b820191906000526020600020905b8154815290600101906020018083116121a957829003601f168201915b505050918352505060028201546001600160a01b031660208201526003820180546040909201916121f690613d6e565b80601f016020809104026020016040519081016040528092919081815260200182805461222290613d6e565b801561226f5780601f106122445761010080835404028352916020019161226f565b820191906000526020600020905b81548152906001019060200180831161225257829003601f168201915b5050505050815260200160048201805461228890613d6e565b80601f01602080910402602001604051908101604052809291908181526020018280546122b490613d6e565b80156123015780601f106122d657610100808354040283529160200191612301565b820191906000526020600020905b8154815290600101906020018083116122e457829003601f168201915b5050505050815260200160058201548152505083838151811061233457634e487b7160e01b600052603260045260246000fd5b6020026020010181905250818061234a90613da9565b9250505b8061235881613da9565b915050612087565b61236b338383612f61565b5050565b6123793383612c78565b6123955760405162461bcd60e51b815260040161062890613b80565b6123a184848484613030565b50505050565b6000818152600260205260409020546060906001600160a01b031661240e5760405162461bcd60e51b815260206004820152601860248201527f555249206e6f74206578697374206f6e207468617420494400000000000000006044820152606401610628565b6000828152600960205260408120805461242790613d6e565b80601f016020809104026020016040519081016040528092919081815260200182805461245390613d6e565b80156124a05780601f10612475576101008083540402835291602001916124a0565b820191906000526020600020905b81548152906001019060200180831161248357829003601f168201915b5093979650505050505050565b6060600033815b600a5481101561252c57816001600160a01b0316600a82815481106124e957634e487b7160e01b600052603260045260246000fd5b60009182526020909120600260079092020101546001600160a01b0316141561251a578261251681613da9565b9350505b8061252481613da9565b9150506124b4565b5060008267ffffffffffffffff81111561255657634e487b7160e01b600052604160045260246000fd5b6040519080825280602002602001820160405280156125d657816020015b6125c36040518060e00160405280600063ffffffff1681526020016060815260200160006001600160a01b03168152602001600081526020016060815260200160608152602001606081525090565b8152602001906001900390816125745790505b5090506000805b600a5481101561293857836001600160a01b0316600a828154811061261257634e487b7160e01b600052603260045260246000fd5b60009182526020909120600260079092020101546001600160a01b0316141561292657600a818154811061265657634e487b7160e01b600052603260045260246000fd5b60009182526020918290206040805160e08101909152600790920201805463ffffffff168252600181018054929391929184019161269390613d6e565b80601f01602080910402602001604051908101604052809291908181526020018280546126bf90613d6e565b801561270c5780601f106126e15761010080835404028352916020019161270c565b820191906000526020600020905b8154815290600101906020018083116126ef57829003601f168201915b505050918352505060028201546001600160a01b031660208201526003820154604082015260048201805460609092019161274690613d6e565b80601f016020809104026020016040519081016040528092919081815260200182805461277290613d6e565b80156127bf5780601f10612794576101008083540402835291602001916127bf565b820191906000526020600020905b8154815290600101906020018083116127a257829003601f168201915b505050505081526020016005820180546127d890613d6e565b80601f016020809104026020016040519081016040528092919081815260200182805461280490613d6e565b80156128515780601f1061282657610100808354040283529160200191612851565b820191906000526020600020905b81548152906001019060200180831161283457829003601f168201915b5050505050815260200160068201805461286a90613d6e565b80601f016020809104026020016040519081016040528092919081815260200182805461289690613d6e565b80156128e35780601f106128b8576101008083540402835291602001916128e3565b820191906000526020600020905b8154815290600101906020018083116128c657829003601f168201915b50505050508152505083838151811061290c57634e487b7160e01b600052603260045260246000fd5b6020026020010181905250818061292290613da9565b9250505b8061293081613da9565b9150506125dd565b5090935050505090565b60008061294e60075490565b905061295a8482613063565b61296481846131a5565b612972600780546001019055565b9392505050565b6008805468010000000000000000900463ffffffff169081908061299c83613dc4565b82546101009290920a63ffffffff8181021990931691831602179091556040805160e081018252848316815288831660208083019182529282018981523360608401526080830189905260a083018890524260c0840152600c805460018101825560009190915283517fdf6966c971051c3d54ec59162606531493a51404a002842f56009d7e5cf4a8c760069092029182018054945163ffffffff199095169188169190911767ffffffff000000001916600160201b94909716939093029590951782555180519295509093612a99937fdf6966c971051c3d54ec59162606531493a51404a002842f56009d7e5cf4a8c8909101929101906132d1565b5060608201516002820180546001600160a01b0319166001600160a01b0390921691909117905560808201518051612adb9160038401916020909101906132d1565b5060a08201518051612af79160048401916020909101906132d1565b5060c0820151816005015550507ff4f3f9ff99cd2a0dc1a2779035b0b53dbd7147b7ad85e1022123daa1edc6067785828633878742604051610b969796959493929190613ccc565b6006546001600160a01b03163314612b995760405162461bcd60e51b815260206004820181905260248201527f4f776e61626c653a2063616c6c6572206973206e6f7420746865206f776e65726044820152606401610628565b6001600160a01b038116612bfe5760405162461bcd60e51b815260206004820152602660248201527f4f776e61626c653a206e6577206f776e657220697320746865207a65726f206160448201526564647265737360d01b6064820152608401610628565b612c0781612f0f565b50565b600081815260046020526040902080546001600160a01b0319166001600160a01b0384169081179091558190612c3f826117e4565b6001600160a01b03167f8c5be1e5ebec7d5bd14f71427d1e84f3dd0314c0f7b2291e5b200ac8c7c3b92560405160405180910390a45050565b6000818152600260205260408120546001600160a01b0316612cf15760405162461bcd60e51b815260206004820152602c60248201527f4552433732313a206f70657261746f7220717565727920666f72206e6f6e657860448201526b34b9ba32b73a103a37b5b2b760a11b6064820152608401610628565b6000612cfc836117e4565b9050806001600160a01b0316846001600160a01b03161480612d375750836001600160a01b0316612d2c846105b3565b6001600160a01b0316145b80612d6757506001600160a01b0380821660009081526005602090815260408083209388168352929052205460ff165b949350505050565b826001600160a01b0316612d82826117e4565b6001600160a01b031614612dea5760405162461bcd60e51b815260206004820152602960248201527f4552433732313a207472616e73666572206f6620746f6b656e2074686174206960448201526839903737ba1037bbb760b91b6064820152608401610628565b6001600160a01b038216612e4c5760405162461bcd60e51b8152602060048201526024808201527f4552433732313a207472616e7366657220746f20746865207a65726f206164646044820152637265737360e01b6064820152608401610628565b612e57600082612c0a565b6001600160a01b0383166000908152600360205260408120805460019290612e80908490613d57565b90915550506001600160a01b0382166000908152600360205260408120805460019290612eae908490613d3f565b909155505060008181526002602052604080822080546001600160a01b0319166001600160a01b0386811691821790925591518493918716917fddf252ad1be2c89b69c2b068fc378daa952ba7f163c4a11628f55a4df523b3ef91a4505050565b600680546001600160a01b038381166001600160a01b0319831681179093556040519116919082907f8be0079c531659141344cd1fd0a4f28419497f9722a3daafe3b4186f6b6457e090600090a35050565b816001600160a01b0316836001600160a01b03161415612fc35760405162461bcd60e51b815260206004820152601960248201527f4552433732313a20617070726f766520746f2063616c6c6572000000000000006044820152606401610628565b6001600160a01b03838116600081815260056020908152604080832094871680845294825291829020805460ff191686151590811790915591519182527f17307eab39ab6107e8899845ad3d59bd9653f200f220920489ca2b5937696c31910160405180910390a3505050565b61303b848484612d6f565b613047848484846131c4565b6123a15760405162461bcd60e51b815260040161062890613b2e565b6001600160a01b0382166130b95760405162461bcd60e51b815260206004820181905260248201527f4552433732313a206d696e7420746f20746865207a65726f20616464726573736044820152606401610628565b6000818152600260205260409020546001600160a01b03161561311e5760405162461bcd60e51b815260206004820152601c60248201527f4552433732313a20746f6b656e20616c7265616479206d696e746564000000006044820152606401610628565b6001600160a01b0382166000908152600360205260408120805460019290613147908490613d3f565b909155505060008181526002602052604080822080546001600160a01b0319166001600160a01b03861690811790915590518392907fddf252ad1be2c89b69c2b068fc378daa952ba7f163c4a11628f55a4df523b3ef908290a45050565b6000828152600960209081526040909120825161075e928401906132d1565b60006001600160a01b0384163b156132c657604051630a85bd0160e11b81526001600160a01b0385169063150b7a02906132089033908990889088906004016137f3565b602060405180830381600087803b15801561322257600080fd5b505af1925050508015613252575060408051601f3d908101601f1916820190925261324f918101906135f5565b60015b6132ac573d808015613280576040519150601f19603f3d011682016040523d82523d6000602084013e613285565b606091505b5080516132a45760405162461bcd60e51b815260040161062890613b2e565b805181602001fd5b6001600160e01b031916630a85bd0160e11b149050612d67565b506001949350505050565b8280546132dd90613d6e565b90600052602060002090601f0160209004810192826132ff5760008555613345565b82601f1061331857805160ff1916838001178555613345565b82800160010185558215613345579182015b8281111561334557825182559160200191906001019061332a565b50613351929150613355565b5090565b5b808211156133515760008155600101613356565b600067ffffffffffffffff8084111561338557613385613dfe565b604051601f8501601f19908116603f011681019082821181831017156133ad576133ad613dfe565b816040528093508581528686860111156133c657600080fd5b858560208301376000602087830101525050509392505050565b80356001600160a01b038116811461051c57600080fd5b600082601f830112613407578081fd5b6129728383356020850161336a565b803563ffffffff8116811461051c57600080fd5b60006020828403121561343b578081fd5b612972826133e0565b60008060408385031215613456578081fd5b61345f836133e0565b915061346d602084016133e0565b90509250929050565b60008060006060848603121561348a578081fd5b613493846133e0565b92506134a1602085016133e0565b9150604084013590509250925092565b600080600080608085870312156134c6578081fd5b6134cf856133e0565b93506134dd602086016133e0565b925060408501359150606085013567ffffffffffffffff8111156134ff578182fd5b8501601f8101871361350f578182fd5b61351e8782356020840161336a565b91505092959194509250565b6000806040838503121561353c578182fd5b613545836133e0565b915060208301358015158114613559578182fd5b809150509250929050565b60008060408385031215613576578182fd5b61357f836133e0565b9150602083013567ffffffffffffffff81111561359a578182fd5b6135a6858286016133f7565b9150509250929050565b600080604083850312156135c2578182fd5b6135cb836133e0565b946020939093013593505050565b6000602082840312156135ea578081fd5b813561297281613e14565b600060208284031215613606578081fd5b815161297281613e14565b60008060008060808587031215613626578384fd5b843567ffffffffffffffff8082111561363d578586fd5b613649888389016133f7565b9550602087013591508082111561365e578485fd5b61366a888389016133f7565b9450604087013591508082111561367f578384fd5b61368b888389016133f7565b935060608701359150808211156136a0578283fd5b5061351e878288016133f7565b6000602082840312156136be578081fd5b5035919050565b6000602082840312156136d6578081fd5b61297282613416565b600080600080608085870312156136f4578182fd5b6136fd85613416565b9350602085013567ffffffffffffffff8082111561365e578384fd5b60008151808452815b8181101561373e57602081850181015186830182015201613722565b8181111561374f5782602083870101525b50601f01601f19169290920160200192915050565b600063ffffffff80835116845280602084015116602085015250604082015160e0604085015261379760e0850182613719565b905060018060a01b036060840151166060850152608083015184820360808601526137c28282613719565b91505060a083015184820360a08601526137dc8282613719565b91505060c083015160c08501528091505092915050565b6001600160a01b038581168252841660208201526040810183905260806060820181905260009061382690830184613719565b9695505050505050565b6000602080830181845280855180835260408601915060408482028701019250838701855b8281101561388357603f19888603018452613871858351613764565b94509285019290850190600101613855565b5092979650505050505050565b60208082528251828201819052600091906040908185019080840286018301878501865b8381101561397257603f19898403018552815160e063ffffffff825116855288820151818a8701526138e882870182613719565b91505087820151613903898701826001600160a01b03169052565b5060608281015190860152608080830151868303828801526139258382613719565b9250505060a080830151868303828801526139408382613719565b9250505060c0808301519250858203818701525061395e8183613719565b9689019694505050908601906001016138b4565b509098975050505050505050565b60208082528251828201819052600091906040908185019080840286018301878501865b8381101561397257603f19898403018552815160608151855288820151818a8701526139d282870182613719565b915050878201519150848103888601526139ec8183613719565b9689019694505050908601906001016139a4565b6000602080830181845280855180835260408601915060408482028701019250838701855b8281101561388357603f19888603018452613a41858351613764565b94509285019290850190600101613a25565b6000602082526129726020830184613719565b600060c08252613a7960c0830189613719565b6001600160a01b0388166020840152604083018790528281036060840152613aa18187613719565b90508281036080840152613ab58186613719565b905082810360a0840152613ac98185613719565b9998505050505050505050565b600060808252613ae96080830187613719565b8281036020840152613afb8187613719565b90508281036040840152613b0f8186613719565b90508281036060840152613b238185613719565b979650505050505050565b60208082526032908201527f4552433732313a207472616e7366657220746f206e6f6e20455243373231526560408201527131b2b4bb32b91034b6b83632b6b2b73a32b960711b606082015260800190565b60208082526031908201527f4552433732313a207472616e736665722063616c6c6572206973206e6f74206f6040820152701ddb995c881b9bdc88185c1c1c9bdd9959607a1b606082015260800190565b600060208252825160806020840152613bed60a0840182613719565b90506020840151601f1980858403016040860152613c0b8383613719565b92506040860151915080858403016060860152613c288383613719565b9250606086015191508085840301608086015250613c468282613719565b95945050505050565b600063ffffffff8916825260e06020830152613c6e60e0830189613719565b6001600160a01b0388166040840152606083018790528281036080840152613c968187613719565b905082810360a0840152613caa8186613719565b905082810360c0840152613cbe8185613719565b9a9950505050505050505050565b600063ffffffff808a16835280891660208401525060e06040830152613cf560e0830188613719565b6001600160a01b03871660608401528281036080840152613d168187613719565b905082810360a0840152613d2a8186613719565b9150508260c083015298975050505050505050565b60008219821115613d5257613d52613de8565b500190565b600082821015613d6957613d69613de8565b500390565b600281046001821680613d8257607f821691505b60208210811415613da357634e487b7160e01b600052602260045260246000fd5b50919050565b6000600019821415613dbd57613dbd613de8565b5060010190565b600063ffffffff80831681811415613dde57613dde613de8565b6001019392505050565b634e487b7160e01b600052601160045260246000fd5b634e487b7160e01b600052604160045260246000fd5b6001600160e01b031981168114612c0757600080fdfea2646970667358221220865f1476093be981220f0a0f9dbb4764c4352cb2a1f0dd5150e8a96fabd106f864736f6c63430008020033",
  "linkReferences": {},
  "deployedLinkReferences": {}
}