{
  "_format": "hh-sol-artifact-1",
  "contractName": "ProfileImageNfts",
  "sourceName": "contracts/MintProfileImage.sol",
  "abi": [
    {
      "inputs": [],
      "stateMutability": "nonpayable",
      "type": "constructor"
    },
    {
      "anonymous": false,
      "inputs": [
        {
          "indexed": true,
          "internalType": "address",
          "name": "owner",
          "type": "address"
        },
        {
          "indexed": true,
          "internalType": "address",
          "name": "approved",
          "type": "address"
        },
        {
          "indexed": true,
          "internalType": "uint256",
          "name": "tokenId",
          "type": "uint256"
        }
      ],
      "name": "Approval",
      "type": "event"
    },
    {
      "anonymous": false,
      "inputs": [
        {
          "indexed": true,
          "internalType": "address",
          "name": "owner",
          "type": "address"
        },
        {
          "indexed": true,
          "internalType": "address",
          "name": "operator",
          "type": "address"
        },
        {
          "indexed": false,
          "internalType": "bool",
          "name": "approved",
          "type": "bool"
        }
      ],
      "name": "ApprovalForAll",
      "type": "event"
    },
    {
      "anonymous": false,
      "inputs": [
        {
          "indexed": false,
          "internalType": "uint32",
          "name": "postId",
          "type": "uint32"
        },
        {
          "indexed": false,
          "internalType": "uint32",
          "name": "id",
          "type": "uint32"
        },
        {
          "indexed": false,
          "internalType": "string",
          "name": "authorName",
          "type": "string"
        },
        {
          "indexed": false,
          "internalType": "address",
          "name": "author",
          "type": "address"
        },
        {
          "indexed": false,
          "internalType": "string",
          "name": "authorImageUrl",
          "type": "string"
        },
        {
          "indexed": false,
          "internalType": "string",
          "name": "text",
          "type": "string"
        },
        {
          "indexed": false,
          "internalType": "uint256",
          "name": "timestamp",
          "type": "uint256"
        }
      ],
      "name": "CommentCreated",
      "type": "event"
    },
    {
      "anonymous": false,
      "inputs": [
        {
          "indexed": true,
          "internalType": "address",
          "name": "previousOwner",
          "type": "address"
        },
        {
          "indexed": true,
          "internalType": "address",
          "name": "newOwner",
          "type": "address"
        }
      ],
      "name": "OwnershipTransferred",
      "type": "event"
    },
    {
      "anonymous": false,
      "inputs": [
        {
          "indexed": false,
          "internalType": "string",
          "name": "username",
          "type": "string"
        },
        {
          "indexed": false,
          "internalType": "address",
          "name": "author",
          "type": "address"
        },
        {
          "indexed": false,
          "internalType": "uint256",
          "name": "timestamp",
          "type": "uint256"
        },
        {
          "indexed": false,
          "internalType": "string",
          "name": "text",
          "type": "string"
        },
        {
          "indexed": false,
          "internalType": "string",
          "name": "imageUrl",
          "type": "string"
        },
        {
          "indexed": false,
          "internalType": "string",
          "name": "authorImageUrl",
          "type": "string"
        }
      ],
      "name": "PostCreated",
      "type": "event"
    },
    {
      "anonymous": false,
      "inputs": [
        {
          "indexed": false,
          "internalType": "uint32",
          "name": "commentId",
          "type": "uint32"
        },
        {
          "indexed": false,
          "internalType": "uint32",
          "name": "id",
          "type": "uint32"
        },
        {
          "indexed": false,
          "internalType": "string",
          "name": "authorName",
          "type": "string"
        },
        {
          "indexed": false,
          "internalType": "address",
          "name": "author",
          "type": "address"
        },
        {
          "indexed": false,
          "internalType": "string",
          "name": "authorImageUrl",
          "type": "string"
        },
        {
          "indexed": false,
          "internalType": "string",
          "name": "text",
          "type": "string"
        },
        {
          "indexed": false,
          "internalType": "uint256",
          "name": "timestamp",
          "type": "uint256"
        }
      ],
      "name": "ReplyCreated",
      "type": "event"
    },
    {
      "anonymous": false,
      "inputs": [
        {
          "indexed": true,
          "internalType": "address",
          "name": "from",
          "type": "address"
        },
        {
          "indexed": true,
          "internalType": "address",
          "name": "to",
          "type": "address"
        },
        {
          "indexed": true,
          "internalType": "uint256",
          "name": "tokenId",
          "type": "uint256"
        }
      ],
      "name": "Transfer",
      "type": "event"
    },
    {
      "anonymous": false,
      "inputs": [
        {
          "indexed": true,
          "internalType": "address",
          "name": "user",
          "type": "address"
        },
        {
          "indexed": false,
          "internalType": "string",
          "name": "name",
          "type": "string"
        },
        {
          "indexed": false,
          "internalType": "string",
          "name": "walletAddress",
          "type": "string"
        },
        {
          "indexed": false,
          "internalType": "string",
          "name": "profileImage",
          "type": "string"
        },
        {
          "indexed": false,
          "internalType": "string",
          "name": "coverImage",
          "type": "string"
        }
      ],
      "name": "UserProfileCreated",
      "type": "event"
    },
    {
      "anonymous": false,
      "inputs": [
        {
          "indexed": true,
          "internalType": "address",
          "name": "user",
          "type": "address"
        },
        {
          "indexed": false,
          "internalType": "string",
          "name": "name",
          "type": "string"
        },
        {
          "indexed": false,
          "internalType": "string",
          "name": "walletAddress",
          "type": "string"
        },
        {
          "indexed": false,
          "internalType": "string",
          "name": "profileImage",
          "type": "string"
        },
        {
          "indexed": false,
          "internalType": "string",
          "name": "coverImage",
          "type": "string"
        }
      ],
      "name": "UserProfileUpdated",
      "type": "event"
    },
    {
      "inputs": [
        {
          "internalType": "address",
          "name": "to",
          "type": "address"
        },
        {
          "internalType": "uint256",
          "name": "tokenId",
          "type": "uint256"
        }
      ],
      "name": "approve",
      "outputs": [],
      "stateMutability": "nonpayable",
      "type": "function"
    },
    {
      "inputs": [
        {
          "internalType": "address",
          "name": "owner",
          "type": "address"
        }
      ],
      "name": "balanceOf",
      "outputs": [
        {
          "internalType": "uint256",
          "name": "",
          "type": "uint256"
        }
      ],
      "stateMutability": "view",
      "type": "function"
    },
    {
      "inputs": [
        {
          "internalType": "uint256",
          "name": "",
          "type": "uint256"
        }
      ],
      "name": "comments",
      "outputs": [
        {
          "internalType": "uint32",
          "name": "id",
          "type": "uint32"
        },
        {
          "internalType": "uint32",
          "name": "postId",
          "type": "uint32"
        },
        {
          "internalType": "string",
          "name": "authorName",
          "type": "string"
        },
        {
          "internalType": "address",
          "name": "author",
          "type": "address"
        },
        {
          "internalType": "string",
          "name": "authorImageUrl",
          "type": "string"
        },
        {
          "internalType": "string",
          "name": "text",
          "type": "string"
        },
        {
          "internalType": "uint256",
          "name": "timestamp",
          "type": "uint256"
        }
      ],
      "stateMutability": "view",
      "type": "function"
    },
    {
      "inputs": [
        {
          "internalType": "uint32",
          "name": "_postId",
          "type": "uint32"
        },
        {
          "internalType": "string",
          "name": "_authorName",
          "type": "string"
        },
        {
          "internalType": "string",
          "name": "_authorImageUrl",
          "type": "string"
        },
        {
          "internalType": "string",
          "name": "_text",
          "type": "string"
        }
      ],
      "name": "createComment",
      "outputs": [],
      "stateMutability": "nonpayable",
      "type": "function"
    },
    {
      "inputs": [
        {
          "internalType": "string",
          "name": "_username",
          "type": "string"
        },
        {
          "internalType": "string",
          "name": "_text",
          "type": "string"
        },
        {
          "internalType": "string",
          "name": "_imageUrl",
          "type": "string"
        },
        {
          "internalType": "string",
          "name": "_authorImageUrl",
          "type": "string"
        }
      ],
      "name": "createPost",
      "outputs": [],
      "stateMutability": "nonpayable",
      "type": "function"
    },
    {
      "inputs": [
        {
          "internalType": "uint32",
          "name": "_commentId",
          "type": "uint32"
        },
        {
          "internalType": "string",
          "name": "_authorName",
          "type": "string"
        },
        {
          "internalType": "string",
          "name": "_authorImageUrl",
          "type": "string"
        },
        {
          "internalType": "string",
          "name": "_text",
          "type": "string"
        }
      ],
      "name": "createReply",
      "outputs": [],
      "stateMutability": "nonpayable",
      "type": "function"
    },
    {
      "inputs": [
        {
          "internalType": "string",
          "name": "_name",
          "type": "string"
        },
        {
          "internalType": "string",
          "name": "_walletAddress",
          "type": "string"
        },
        {
          "internalType": "string",
          "name": "_profileImage",
          "type": "string"
        },
        {
          "internalType": "string",
          "name": "_coverImage",
          "type": "string"
        }
      ],
      "name": "createUserProfile",
      "outputs": [],
      "stateMutability": "nonpayable",
      "type": "function"
    },
    {
      "inputs": [],
      "name": "getAlltoken",
      "outputs": [
        {
          "components": [
            {
              "internalType": "uint256",
              "name": "id",
              "type": "uint256"
            },
            {
              "internalType": "string",
              "name": "uri",
              "type": "string"
            },
            {
              "internalType": "string",
              "name": "space",
              "type": "string"
            }
          ],
          "internalType": "struct ProfileImageNfts.RenderToken[]",
          "name": "",
          "type": "tuple[]"
        }
      ],
      "stateMutability": "view",
      "type": "function"
    },
    {
      "inputs": [
        {
          "internalType": "uint256",
          "name": "tokenId",
          "type": "uint256"
        }
      ],
      "name": "getApproved",
      "outputs": [
        {
          "internalType": "address",
          "name": "",
          "type": "address"
        }
      ],
      "stateMutability": "view",
      "type": "function"
    },
    {
      "inputs": [
        {
          "internalType": "uint32",
          "name": "_postId",
          "type": "uint32"
        }
      ],
      "name": "getCommentsByPostId",
      "outputs": [
        {
          "components": [
            {
              "internalType": "uint32",
              "name": "id",
              "type": "uint32"
            },
            {
              "internalType": "uint32",
              "name": "postId",
              "type": "uint32"
            },
            {
              "internalType": "string",
              "name": "authorName",
              "type": "string"
            },
            {
              "internalType": "address",
              "name": "author",
              "type": "address"
            },
            {
              "internalType": "string",
              "name": "authorImageUrl",
              "type": "string"
            },
            {
              "internalType": "string",
              "name": "text",
              "type": "string"
            },
            {
              "internalType": "uint256",
              "name": "timestamp",
              "type": "uint256"
            }
          ],
          "internalType": "struct ProfileImageNfts.Comment[]",
          "name": "",
          "type": "tuple[]"
        }
      ],
      "stateMutability": "view",
      "type": "function"
    },
    {
      "inputs": [],
      "name": "getPosts",
      "outputs": [
        {
          "components": [
            {
              "internalType": "uint32",
              "name": "id",
              "type": "uint32"
            },
            {
              "internalType": "string",
              "name": "username",
              "type": "string"
            },
            {
              "internalType": "address",
              "name": "author",
              "type": "address"
            },
            {
              "internalType": "string",
              "name": "timestamp",
              "type": "string"
            },
            {
              "internalType": "string",
              "name": "text",
              "type": "string"
            },
            {
              "internalType": "string",
              "name": "imageUrl",
              "type": "string"
            },
            {
              "internalType": "string",
              "name": "authorImageUrl",
              "type": "string"
            }
          ],
          "internalType": "struct ProfileImageNfts.Post[]",
          "name": "",
          "type": "tuple[]"
        }
      ],
      "stateMutability": "view",
      "type": "function"
    },
    {
      "inputs": [
        {
          "internalType": "uint32",
          "name": "_commentId",
          "type": "uint32"
        }
      ],
      "name": "getRepliesByCommentId",
      "outputs": [
        {
          "components": [
            {
              "internalType": "uint32",
              "name": "id",
              "type": "uint32"
            },
            {
              "internalType": "uint32",
              "name": "commentId",
              "type": "uint32"
            },
            {
              "internalType": "string",
              "name": "authorName",
              "type": "string"
            },
            {
              "internalType": "address",
              "name": "author",
              "type": "address"
            },
            {
              "internalType": "string",
              "name": "authorImageUrl",
              "type": "string"
            },
            {
              "internalType": "string",
              "name": "text",
              "type": "string"
            },
            {
              "internalType": "uint256",
              "name": "timestamp",
              "type": "uint256"
            }
          ],
          "internalType": "struct ProfileImageNfts.Reply[]",
          "name": "",
          "type": "tuple[]"
        }
      ],
      "stateMutability": "view",
      "type": "function"
    },
    {
      "inputs": [],
      "name": "getUserPosts",
      "outputs": [
        {
          "components": [
            {
              "internalType": "uint32",
              "name": "id",
              "type": "uint32"
            },
            {
              "internalType": "string",
              "name": "username",
              "type": "string"
            },
            {
              "internalType": "address",
              "name": "author",
              "type": "address"
            },
            {
              "internalType": "string",
              "name": "timestamp",
              "type": "string"
            },
            {
              "internalType": "string",
              "name": "text",
              "type": "string"
            },
            {
              "internalType": "string",
              "name": "imageUrl",
              "type": "string"
            },
            {
              "internalType": "string",
              "name": "authorImageUrl",
              "type": "string"
            }
          ],
          "internalType": "struct ProfileImageNfts.Post[]",
          "name": "",
          "type": "tuple[]"
        }
      ],
      "stateMutability": "view",
      "type": "function"
    },
    {
      "inputs": [
        {
          "internalType": "address",
          "name": "_user",
          "type": "address"
        }
      ],
      "name": "getUserProfile",
      "outputs": [
        {
          "components": [
            {
              "internalType": "string",
              "name": "name",
              "type": "string"
            },
            {
              "internalType": "string",
              "name": "walletAddress",
              "type": "string"
            },
            {
              "internalType": "string",
              "name": "profileImage",
              "type": "string"
            },
            {
              "internalType": "string",
              "name": "coverImage",
              "type": "string"
            }
          ],
          "internalType": "struct ProfileImageNfts.UserProfile",
          "name": "",
          "type": "tuple"
        }
      ],
      "stateMutability": "view",
      "type": "function"
    },
    {
      "inputs": [
        {
          "internalType": "address",
          "name": "owner",
          "type": "address"
        },
        {
          "internalType": "address",
          "name": "operator",
          "type": "address"
        }
      ],
      "name": "isApprovedForAll",
      "outputs": [
        {
          "internalType": "bool",
          "name": "",
          "type": "bool"
        }
      ],
      "stateMutability": "view",
      "type": "function"
    },
    {
      "inputs": [
        {
          "internalType": "address",
          "name": "recipents",
          "type": "address"
        },
        {
          "internalType": "string",
          "name": "_uri",
          "type": "string"
        }
      ],
      "name": "mint",
      "outputs": [
        {
          "internalType": "uint256",
          "name": "",
          "type": "uint256"
        }
      ],
      "stateMutability": "nonpayable",
      "type": "function"
    },
    {
      "inputs": [],
      "name": "name",
      "outputs": [
        {
          "internalType": "string",
          "name": "",
          "type": "string"
        }
      ],
      "stateMutability": "view",
      "type": "function"
    },
    {
      "inputs": [],
      "name": "owner",
      "outputs": [
        {
          "internalType": "address",
          "name": "",
          "type": "address"
        }
      ],
      "stateMutability": "view",
      "type": "function"
    },
    {
      "inputs": [
        {
          "internalType": "uint256",
          "name": "tokenId",
          "type": "uint256"
        }
      ],
      "name": "ownerOf",
      "outputs": [
        {
          "internalType": "address",
          "name": "",
          "type": "address"
        }
      ],
      "stateMutability": "view",
      "type": "function"
    },
    {
      "inputs": [
        {
          "internalType": "uint256",
          "name": "",
          "type": "uint256"
        }
      ],
      "name": "posts",
      "outputs": [
        {
          "internalType": "uint32",
          "name": "id",
          "type": "uint32"
        },
        {
          "internalType": "string",
          "name": "username",
          "type": "string"
        },
        {
          "internalType": "address",
          "name": "author",
          "type": "address"
        },
        {
          "internalType": "string",
          "name": "timestamp",
          "type": "string"
        },
        {
          "internalType": "string",
          "name": "text",
          "type": "string"
        },
        {
          "internalType": "string",
          "name": "imageUrl",
          "type": "string"
        },
        {
          "internalType": "string",
          "name": "authorImageUrl",
          "type": "string"
        }
      ],
      "stateMutability": "view",
      "type": "function"
    },
    {
      "inputs": [],
      "name": "renounceOwnership",
      "outputs": [],
      "stateMutability": "nonpayable",
      "type": "function"
    },
    {
      "inputs": [
        {
          "internalType": "uint256",
          "name": "",
          "type": "uint256"
        }
      ],
      "name": "replies",
      "outputs": [
        {
          "internalType": "uint32",
          "name": "id",
          "type": "uint32"
        },
        {
          "internalType": "uint32",
          "name": "commentId",
          "type": "uint32"
        },
        {
          "internalType": "string",
          "name": "authorName",
          "type": "string"
        },
        {
          "internalType": "address",
          "name": "author",
          "type": "address"
        },
        {
          "internalType": "string",
          "name": "authorImageUrl",
          "type": "string"
        },
        {
          "internalType": "string",
          "name": "text",
          "type": "string"
        },
        {
          "internalType": "uint256",
          "name": "timestamp",
          "type": "uint256"
        }
      ],
      "stateMutability": "view",
      "type": "function"
    },
    {
      "inputs": [
        {
          "internalType": "address",
          "name": "from",
          "type": "address"
        },
        {
          "internalType": "address",
          "name": "to",
          "type": "address"
        },
        {
          "internalType": "uint256",
          "name": "tokenId",
          "type": "uint256"
        }
      ],
      "name": "safeTransferFrom",
      "outputs": [],
      "stateMutability": "nonpayable",
      "type": "function"
    },
    {
      "inputs": [
        {
          "internalType": "address",
          "name": "from",
          "type": "address"
        },
        {
          "internalType": "address",
          "name": "to",
          "type": "address"
        },
        {
          "internalType": "uint256",
          "name": "tokenId",
          "type": "uint256"
        },
        {
          "internalType": "bytes",
          "name": "_data",
          "type": "bytes"
        }
      ],
      "name": "safeTransferFrom",
      "outputs": [],
      "stateMutability": "nonpayable",
      "type": "function"
    },
    {
      "inputs": [
        {
          "internalType": "address",
          "name": "operator",
          "type": "address"
        },
        {
          "internalType": "bool",
          "name": "approved",
          "type": "bool"
        }
      ],
      "name": "setApprovalForAll",
      "outputs": [],
      "stateMutability": "nonpayable",
      "type": "function"
    },
    {
      "inputs": [
        {
          "internalType": "bytes4",
          "name": "interfaceId",
          "type": "bytes4"
        }
      ],
      "name": "supportsInterface",
      "outputs": [
        {
          "internalType": "bool",
          "name": "",
          "type": "bool"
        }
      ],
      "stateMutability": "view",
      "type": "function"
    },
    {
      "inputs": [],
      "name": "symbol",
      "outputs": [
        {
          "internalType": "string",
          "name": "",
          "type": "string"
        }
      ],
      "stateMutability": "view",
      "type": "function"
    },
    {
      "inputs": [
        {
          "internalType": "uint256",
          "name": "tokenId",
          "type": "uint256"
        }
      ],
      "name": "tokenURI",
      "outputs": [
        {
          "internalType": "string",
          "name": "",
          "type": "string"
        }
      ],
      "stateMutability": "view",
      "type": "function"
    },
    {
      "inputs": [
        {
          "internalType": "address",
          "name": "from",
          "type": "address"
        },
        {
          "internalType": "address",
          "name": "to",
          "type": "address"
        },
        {
          "internalType": "uint256",
          "name": "tokenId",
          "type": "uint256"
        }
      ],
      "name": "transferFrom",
      "outputs": [],
      "stateMutability": "nonpayable",
      "type": "function"
    },
    {
      "inputs": [
        {
          "internalType": "address",
          "name": "newOwner",
          "type": "address"
        }
      ],
      "name": "transferOwnership",
      "outputs": [],
      "stateMutability": "nonpayable",
      "type": "function"
    },
    {
      "inputs": [
        {
          "internalType": "string",
          "name": "_name",
          "type": "string"
        },
        {
          "internalType": "string",
          "name": "_walletAddress",
          "type": "string"
        },
        {
          "internalType": "string",
          "name": "_profileImage",
          "type": "string"
        },
        {
          "internalType": "string",
          "name": "_coverImage",
          "type": "string"
        }
      ],
      "name": "updateUserProfile",
      "outputs": [],
      "stateMutability": "nonpayable",
      "type": "function"
    }
  ],
  "bytecode": "0x60806040526008805463ffffffff60401b1963ffffffff60201b1963ffffffff19909216600117919091166401000000001716680100000000000000001790553480156200004c57600080fd5b50604080518082018252601081526f50726f66696c65496d6167654e66747360801b6020808301918252835180850190945260038452622824a760e91b908401528151919291620000a0916000916200012f565b508051620000b69060019060208401906200012f565b505050620000d3620000cd620000d960201b60201c565b620000dd565b62000212565b3390565b600680546001600160a01b038381166001600160a01b0319831681179093556040519116919082907f8be0079c531659141344cd1fd0a4f28419497f9722a3daafe3b4186f6b6457e090600090a35050565b8280546200013d90620001d5565b90600052602060002090601f016020900481019282620001615760008555620001ac565b82601f106200017c57805160ff1916838001178555620001ac565b82800160010185558215620001ac579182015b82811115620001ac5782518255916020019190600101906200018f565b50620001ba929150620001be565b5090565b5b80821115620001ba5760008155600101620001bf565b600281046001821680620001ea57607f821691505b602082108114156200020c57634e487b7160e01b600052602260045260246000fd5b50919050565b6141af80620002226000396000f3fe608060405234801561001057600080fd5b50600436106101e55760003560e01c806370a082311161010f578063a22cb465116100a2578063d0def52111610071578063d0def52114610458578063e985e9c51461046b578063ecb88548146104a7578063f2fde38b146104ba576101e5565b8063a22cb46514610417578063b88d4fde1461042a578063c87b56dd1461043d578063cc4ef2cc14610450576101e5565b80638ebb4c15116100de5780638ebb4c15146103bc57806395d89b41146103cf578063987ee156146103d75780639d538251146103f7576101e5565b806370a082311461036f578063715018a61461039057806379726074146103985780638da5cb5b146103ab576101e5565b806323b872dd116101875780635c0322e0116101565780635c0322e0146103035780635c7c366d146103235780636352211e14610349578063695f7f5e1461035c576101e5565b806323b872dd146102b357806328904431146102c657806341f3004a146102db57806342842e0e146102f0576101e5565b8063095ea7b3116101c3578063095ea7b3146102525780630b1e7f83146102675780630d57f91f1461028d5780631a0468b3146102a0576101e5565b806301ffc9a7146101ea57806306fdde0314610212578063081812fc14610227575b600080fd5b6101fd6101f83660046138cc565b6104cd565b60405190151581526020015b60405180910390f35b61021a610521565b6040516102099190613d57565b61023a6102353660046139a0565b6105b3565b6040516001600160a01b039091168152602001610209565b6102656102603660046138a3565b61064d565b005b61027a6102753660046139a0565b610763565b6040516102099796959493929190613f53565b61026561029b366004613904565b610a6f565b6102656102ae3660046139d2565b610c5a565b6102656102c1366004613769565b610e2b565b6102ce610e5c565b6040516102099190613c84565b6102e3610f9a565b6040516102099190613b83565b6102656102fe366004613769565b6112fd565b6103166103113660046139b8565b611318565b6040516102099190613b23565b6103366103313660046139a0565b61172e565b6040516102099796959493929190613fdd565b61023a6103573660046139a0565b611930565b61026561036a366004613904565b6119a7565b61038261037d36600461371d565b611a86565b604051908152602001610209565b610265611b0d565b6102656103a6366004613904565b611b73565b6006546001600160a01b031661023a565b6103366103ca3660046139a0565b611de5565b61021a611df5565b6103ea6103e536600461371d565b611e04565b6040516102099190613ed5565b61040a6104053660046139b8565b6120a0565b6040516102099190613d04565b61026561042536600461381d565b6124ac565b6102656104383660046137a4565b6124bb565b61021a61044b3660046139a0565b6124f3565b6102e36125f9565b610382610466366004613857565b612b16565b6101fd610479366004613737565b6001600160a01b03918216600090815260056020908152604080832093909416825291909152205460ff1690565b6102656104b53660046139d2565b612b4d565b6102656104c836600461371d565b612d13565b60006001600160e01b031982166380ac58cd60e01b14806104fe57506001600160e01b03198216635b5e139f60e01b145b8061051957506301ffc9a760e01b6001600160e01b03198316145b90505b919050565b60606000805461053090614093565b80601f016020809104026020016040519081016040528092919081815260200182805461055c90614093565b80156105a95780601f1061057e576101008083540402835291602001916105a9565b820191906000526020600020905b81548152906001019060200180831161058c57829003601f168201915b5050505050905090565b6000818152600260205260408120546001600160a01b03166106315760405162461bcd60e51b815260206004820152602c60248201527f4552433732313a20617070726f76656420717565727920666f72206e6f6e657860448201526b34b9ba32b73a103a37b5b2b760a11b60648201526084015b60405180910390fd5b506000908152600460205260409020546001600160a01b031690565b600061065882611930565b9050806001600160a01b0316836001600160a01b031614156106c65760405162461bcd60e51b815260206004820152602160248201527f4552433732313a20617070726f76616c20746f2063757272656e74206f776e656044820152603960f91b6064820152608401610628565b336001600160a01b03821614806106e257506106e28133610479565b6107545760405162461bcd60e51b815260206004820152603860248201527f4552433732313a20617070726f76652063616c6c6572206973206e6f74206f7760448201527f6e6572206e6f7220617070726f76656420666f7220616c6c00000000000000006064820152608401610628565b61075e8383612dde565b505050565b600a818154811061077357600080fd5b60009182526020909120600790910201805460018201805463ffffffff90921693509061079f90614093565b80601f01602080910402602001604051908101604052809291908181526020018280546107cb90614093565b80156108185780601f106107ed57610100808354040283529160200191610818565b820191906000526020600020905b8154815290600101906020018083116107fb57829003601f168201915b505050600284015460038501805494956001600160a01b0390921694919350915061084290614093565b80601f016020809104026020016040519081016040528092919081815260200182805461086e90614093565b80156108bb5780601f10610890576101008083540402835291602001916108bb565b820191906000526020600020905b81548152906001019060200180831161089e57829003601f168201915b5050505050908060040180546108d090614093565b80601f01602080910402602001604051908101604052809291908181526020018280546108fc90614093565b80156109495780601f1061091e57610100808354040283529160200191610949565b820191906000526020600020905b81548152906001019060200180831161092c57829003601f168201915b50505050509080600501805461095e90614093565b80601f016020809104026020016040519081016040528092919081815260200182805461098a90614093565b80156109d75780601f106109ac576101008083540402835291602001916109d7565b820191906000526020600020905b8154815290600101906020018083116109ba57829003601f168201915b5050505050908060060180546109ec90614093565b80601f0160208091040260200160405190810160405280929190818152602001828054610a1890614093565b8015610a655780601f10610a3a57610100808354040283529160200191610a65565b820191906000526020600020905b815481529060010190602001808311610a4857829003601f168201915b5050505050905087565b6008805463ffffffff169081906000610a87836140e9565b91906101000a81548163ffffffff021916908363ffffffff160217905550506000610ab142612e4c565b6040805160e08101825263ffffffff858116825260208083018b8152339484019490945260608301859052608083018a905260a0830189905260c08301889052600a805460018101825560009190915283517fc65a7bb8d6351c1cf70c95a316cc6a92839c986682d98bc35f958f4883f9d2a86007909202918201805463ffffffff1916919094161783559351805195965092949193610b78937fc65a7bb8d6351c1cf70c95a316cc6a92839c986682d98bc35f958f4883f9d2a9909101929101906135c4565b5060408201516002820180546001600160a01b0319166001600160a01b0390921691909117905560608201518051610bba9160038401916020909101906135c4565b5060808201518051610bd69160048401916020909101906135c4565b5060a08201518051610bf29160058401916020909101906135c4565b5060c08201518051610c0e9160068401916020909101906135c4565b5050507f3d2c942797a8eb02631fa68384abfd204eabd8bd20866ece0935f521a368e160863342888888604051610c4a96959493929190613d6a565b60405180910390a1505050505050565b60088054600160201b900463ffffffff169081906004610c79836140e9565b82546101009290920a63ffffffff8181021990931691831602179091556040805160e081018252848316815288831660208083019182529282018981523360608401526080830189905260a083018890524260c0840152600b805460018101825560009190915283517f0175b7a638427703f0dbe7bb9bbf987a2551717b34e79f33b5b1008d1fa01db960069092029182018054945163ffffffff199095169188169190911767ffffffff000000001916600160201b94909716939093029590951782555180519295509093610d76937f0175b7a638427703f0dbe7bb9bbf987a2551717b34e79f33b5b1008d1fa01dba909101929101906135c4565b5060608201516002820180546001600160a01b0319166001600160a01b0390921691909117905560808201518051610db89160038401916020909101906135c4565b5060a08201518051610dd49160048401916020909101906135c4565b5060c0820151816005015550507f6887cd1c6219872eeccde69bec7ec0b2beb0ce6c2f927c9d847568f80752f25885828633878742604051610e1c9796959493929190613fdd565b60405180910390a15050505050565b610e353382612f6f565b610e515760405162461bcd60e51b815260040161062890613e84565b61075e838383613062565b60606000610e6960075490565b905060008167ffffffffffffffff811115610e9457634e487b7160e01b600052604160045260246000fd5b604051908082528060200260200182016040528015610ee957816020015b610ed660405180606001604052806000815260200160608152602001606081525090565b815260200190600190039081610eb25790505b50905060005b828111610f93576000818152600260205260409020546001600160a01b031615610f81576000610f1e826124f3565b90506040518060600160405280838152602001828152602001604051806040016040528060018152602001600160fd1b815250815250838381518110610f7457634e487b7160e01b600052603260045260246000fd5b6020026020010181905250505b80610f8b816140ce565b915050610eef565b5091505090565b6060600a805480602002602001604051908101604052809291908181526020016000905b828210156112f45760008481526020908190206040805160e0810190915260078502909101805463ffffffff168252600181018054929391929184019161100490614093565b80601f016020809104026020016040519081016040528092919081815260200182805461103090614093565b801561107d5780601f106110525761010080835404028352916020019161107d565b820191906000526020600020905b81548152906001019060200180831161106057829003601f168201915b505050918352505060028201546001600160a01b031660208201526003820180546040909201916110ad90614093565b80601f01602080910402602001604051908101604052809291908181526020018280546110d990614093565b80156111265780601f106110fb57610100808354040283529160200191611126565b820191906000526020600020905b81548152906001019060200180831161110957829003601f168201915b5050505050815260200160048201805461113f90614093565b80601f016020809104026020016040519081016040528092919081815260200182805461116b90614093565b80156111b85780601f1061118d576101008083540402835291602001916111b8565b820191906000526020600020905b81548152906001019060200180831161119b57829003601f168201915b505050505081526020016005820180546111d190614093565b80601f01602080910402602001604051908101604052809291908181526020018280546111fd90614093565b801561124a5780601f1061121f5761010080835404028352916020019161124a565b820191906000526020600020905b81548152906001019060200180831161122d57829003601f168201915b5050505050815260200160068201805461126390614093565b80601f016020809104026020016040519081016040528092919081815260200182805461128f90614093565b80156112dc5780601f106112b1576101008083540402835291602001916112dc565b820191906000526020600020905b8154815290600101906020018083116112bf57829003601f168201915b50505050508152505081526020019060010190610fbe565b50505050905090565b61075e838383604051806020016040528060008152506124bb565b60606000805b600b54811015611394578363ffffffff16600b828154811061135057634e487b7160e01b600052603260045260246000fd5b6000918252602090912060069091020154600160201b900463ffffffff161415611382578161137e816140ce565b9250505b8061138c816140ce565b91505061131e565b5060008167ffffffffffffffff8111156113be57634e487b7160e01b600052604160045260246000fd5b60405190808252806020026020018201604052801561144457816020015b6114316040518060e00160405280600063ffffffff168152602001600063ffffffff1681526020016060815260200160006001600160a01b031681526020016060815260200160608152602001600081525090565b8152602001906001900390816113dc5790505b5090506000805b600b54811015611724578563ffffffff16600b828154811061147d57634e487b7160e01b600052603260045260246000fd5b6000918252602090912060069091020154600160201b900463ffffffff16141561171257600b81815481106114c257634e487b7160e01b600052603260045260246000fd5b60009182526020918290206040805160e0810182526006909302909101805463ffffffff8082168552600160201b90910416938301939093526001830180549293929184019161151190614093565b80601f016020809104026020016040519081016040528092919081815260200182805461153d90614093565b801561158a5780601f1061155f5761010080835404028352916020019161158a565b820191906000526020600020905b81548152906001019060200180831161156d57829003601f168201915b505050918352505060028201546001600160a01b031660208201526003820180546040909201916115ba90614093565b80601f01602080910402602001604051908101604052809291908181526020018280546115e690614093565b80156116335780601f1061160857610100808354040283529160200191611633565b820191906000526020600020905b81548152906001019060200180831161161657829003601f168201915b5050505050815260200160048201805461164c90614093565b80601f016020809104026020016040519081016040528092919081815260200182805461167890614093565b80156116c55780601f1061169a576101008083540402835291602001916116c5565b820191906000526020600020905b8154815290600101906020018083116116a857829003601f168201915b505050505081526020016005820154815250508383815181106116f857634e487b7160e01b600052603260045260246000fd5b6020026020010181905250818061170e906140ce565b9250505b8061171c816140ce565b91505061144b565b5090949350505050565b600c818154811061173e57600080fd5b60009182526020909120600690910201805460018201805463ffffffff8084169550600160201b909304909216929161177690614093565b80601f01602080910402602001604051908101604052809291908181526020018280546117a290614093565b80156117ef5780601f106117c4576101008083540402835291602001916117ef565b820191906000526020600020905b8154815290600101906020018083116117d257829003601f168201915b505050600284015460038501805494956001600160a01b0390921694919350915061181990614093565b80601f016020809104026020016040519081016040528092919081815260200182805461184590614093565b80156118925780601f1061186757610100808354040283529160200191611892565b820191906000526020600020905b81548152906001019060200180831161187557829003601f168201915b5050505050908060040180546118a790614093565b80601f01602080910402602001604051908101604052809291908181526020018280546118d390614093565b80156119205780601f106118f557610100808354040283529160200191611920565b820191906000526020600020905b81548152906001019060200180831161190357829003601f168201915b5050505050908060050154905087565b6000818152600260205260408120546001600160a01b0316806105195760405162461bcd60e51b815260206004820152602960248201527f4552433732313a206f776e657220717565727920666f72206e6f6e657869737460448201526832b73a103a37b5b2b760b91b6064820152608401610628565b60408051608081018252858152602080820186905281830185905260608201849052336000908152600d82529290922081518051929391926119ec92849201906135c4565b506020828101518051611a0592600185019201906135c4565b5060408201518051611a219160028401916020909101906135c4565b5060608201518051611a3d9160038401916020909101906135c4565b50506040513391507f665b1b5e9c537629b88aece147a5ea5c08f4a9fe399e3008dd2cf8151cea8f6190611a78908790879087908790613dda565b60405180910390a250505050565b60006001600160a01b038216611af15760405162461bcd60e51b815260206004820152602a60248201527f4552433732313a2062616c616e636520717565727920666f7220746865207a65604482015269726f206164647265737360b01b6064820152608401610628565b506001600160a01b031660009081526003602052604090205490565b6006546001600160a01b03163314611b675760405162461bcd60e51b815260206004820181905260248201527f4f776e61626c653a2063616c6c6572206973206e6f7420746865206f776e65726044820152606401610628565b611b716000613202565b565b336000908152600d602052604090208451611c165780548190611b9590614093565b80601f0160208091040260200160405190810160405280929190818152602001828054611bc190614093565b8015611c0e5780601f10611be357610100808354040283529160200191611c0e565b820191906000526020600020905b815481529060010190602001808311611bf157829003601f168201915b505050505094505b8251611cac57806002018054611c2b90614093565b80601f0160208091040260200160405190810160405280929190818152602001828054611c5790614093565b8015611ca45780601f10611c7957610100808354040283529160200191611ca4565b820191906000526020600020905b815481529060010190602001808311611c8757829003601f168201915b505050505092505b8151611d4257806003018054611cc190614093565b80601f0160208091040260200160405190810160405280929190818152602001828054611ced90614093565b8015611d3a5780601f10611d0f57610100808354040283529160200191611d3a565b820191906000526020600020905b815481529060010190602001808311611d1d57829003601f168201915b505050505091505b8451611d5490829060208801906135c4565b508351611d6a90600183019060208701906135c4565b508251611d8090600283019060208601906135c4565b508151611d9690600383019060208501906135c4565b50336001600160a01b03167fb492166838a13bd7d8be9f3425f4e7d0cf5aa2e551333f07be090f1c6b89ddbd86868686604051611dd69493929190613dda565b60405180910390a25050505050565b600b818154811061173e57600080fd5b60606001805461053090614093565b611e2f6040518060800160405280606081526020016060815260200160608152602001606081525090565b6001600160a01b0382166000908152600d602052604090819020815160808101909252805482908290611e6190614093565b80601f0160208091040260200160405190810160405280929190818152602001828054611e8d90614093565b8015611eda5780601f10611eaf57610100808354040283529160200191611eda565b820191906000526020600020905b815481529060010190602001808311611ebd57829003601f168201915b50505050508152602001600182018054611ef390614093565b80601f0160208091040260200160405190810160405280929190818152602001828054611f1f90614093565b8015611f6c5780601f10611f4157610100808354040283529160200191611f6c565b820191906000526020600020905b815481529060010190602001808311611f4f57829003601f168201915b50505050508152602001600282018054611f8590614093565b80601f0160208091040260200160405190810160405280929190818152602001828054611fb190614093565b8015611ffe5780601f10611fd357610100808354040283529160200191611ffe565b820191906000526020600020905b815481529060010190602001808311611fe157829003601f168201915b5050505050815260200160038201805461201790614093565b80601f016020809104026020016040519081016040528092919081815260200182805461204390614093565b80156120905780601f1061206557610100808354040283529160200191612090565b820191906000526020600020905b81548152906001019060200180831161207357829003601f168201915b5050505050815250509050919050565b60606000805b600c5481101561211c578363ffffffff16600c82815481106120d857634e487b7160e01b600052603260045260246000fd5b6000918252602090912060069091020154600160201b900463ffffffff16141561210a5781612106816140ce565b9250505b80612114816140ce565b9150506120a6565b5060008167ffffffffffffffff81111561214657634e487b7160e01b600052604160045260246000fd5b6040519080825280602002602001820160405280156121cc57816020015b6121b96040518060e00160405280600063ffffffff168152602001600063ffffffff1681526020016060815260200160006001600160a01b031681526020016060815260200160608152602001600081525090565b8152602001906001900390816121645790505b5090506000805b600c54811015611724578563ffffffff16600c828154811061220557634e487b7160e01b600052603260045260246000fd5b6000918252602090912060069091020154600160201b900463ffffffff16141561249a57600c818154811061224a57634e487b7160e01b600052603260045260246000fd5b60009182526020918290206040805160e0810182526006909302909101805463ffffffff8082168552600160201b90910416938301939093526001830180549293929184019161229990614093565b80601f01602080910402602001604051908101604052809291908181526020018280546122c590614093565b80156123125780601f106122e757610100808354040283529160200191612312565b820191906000526020600020905b8154815290600101906020018083116122f557829003601f168201915b505050918352505060028201546001600160a01b0316602082015260038201805460409092019161234290614093565b80601f016020809104026020016040519081016040528092919081815260200182805461236e90614093565b80156123bb5780601f10612390576101008083540402835291602001916123bb565b820191906000526020600020905b81548152906001019060200180831161239e57829003601f168201915b505050505081526020016004820180546123d490614093565b80601f016020809104026020016040519081016040528092919081815260200182805461240090614093565b801561244d5780601f106124225761010080835404028352916020019161244d565b820191906000526020600020905b81548152906001019060200180831161243057829003601f168201915b5050505050815260200160058201548152505083838151811061248057634e487b7160e01b600052603260045260246000fd5b60200260200101819052508180612496906140ce565b9250505b806124a4816140ce565b9150506121d3565b6124b7338383613254565b5050565b6124c53383612f6f565b6124e15760405162461bcd60e51b815260040161062890613e84565b6124ed84848484613323565b50505050565b6000818152600260205260409020546060906001600160a01b031661255a5760405162461bcd60e51b815260206004820152601860248201527f555249206e6f74206578697374206f6e207468617420494400000000000000006044820152606401610628565b6000828152600960205260408120805461257390614093565b80601f016020809104026020016040519081016040528092919081815260200182805461259f90614093565b80156125ec5780601f106125c1576101008083540402835291602001916125ec565b820191906000526020600020905b8154815290600101906020018083116125cf57829003601f168201915b5093979650505050505050565b6060600033815b600a5481101561267857816001600160a01b0316600a828154811061263557634e487b7160e01b600052603260045260246000fd5b60009182526020909120600260079092020101546001600160a01b031614156126665782612662816140ce565b9350505b80612670816140ce565b915050612600565b5060008267ffffffffffffffff8111156126a257634e487b7160e01b600052604160045260246000fd5b60405190808252806020026020018201604052801561272257816020015b61270f6040518060e00160405280600063ffffffff1681526020016060815260200160006001600160a01b03168152602001606081526020016060815260200160608152602001606081525090565b8152602001906001900390816126c05790505b5090506000805b600a54811015612b0c57836001600160a01b0316600a828154811061275e57634e487b7160e01b600052603260045260246000fd5b60009182526020909120600260079092020101546001600160a01b03161415612afa57600a81815481106127a257634e487b7160e01b600052603260045260246000fd5b60009182526020918290206040805160e08101909152600790920201805463ffffffff16825260018101805492939192918401916127df90614093565b80601f016020809104026020016040519081016040528092919081815260200182805461280b90614093565b80156128585780601f1061282d57610100808354040283529160200191612858565b820191906000526020600020905b81548152906001019060200180831161283b57829003601f168201915b505050918352505060028201546001600160a01b0316602082015260038201805460409092019161288890614093565b80601f01602080910402602001604051908101604052809291908181526020018280546128b490614093565b80156129015780601f106128d657610100808354040283529160200191612901565b820191906000526020600020905b8154815290600101906020018083116128e457829003601f168201915b5050505050815260200160048201805461291a90614093565b80601f016020809104026020016040519081016040528092919081815260200182805461294690614093565b80156129935780601f1061296857610100808354040283529160200191612993565b820191906000526020600020905b81548152906001019060200180831161297657829003601f168201915b505050505081526020016005820180546129ac90614093565b80601f01602080910402602001604051908101604052809291908181526020018280546129d890614093565b8015612a255780601f106129fa57610100808354040283529160200191612a25565b820191906000526020600020905b815481529060010190602001808311612a0857829003601f168201915b50505050508152602001600682018054612a3e90614093565b80601f0160208091040260200160405190810160405280929190818152602001828054612a6a90614093565b8015612ab75780601f10612a8c57610100808354040283529160200191612ab7565b820191906000526020600020905b815481529060010190602001808311612a9a57829003601f168201915b505050505081525050838381518110612ae057634e487b7160e01b600052603260045260246000fd5b60200260200101819052508180612af6906140ce565b9250505b80612b04816140ce565b915050612729565b5090935050505090565b600080612b2260075490565b9050612b2e8482613356565b612b388184613498565b612b46600780546001019055565b9392505050565b6008805468010000000000000000900463ffffffff1690819080612b70836140e9565b82546101009290920a63ffffffff8181021990931691831602179091556040805160e081018252848316815288831660208083019182529282018981523360608401526080830189905260a083018890524260c0840152600c805460018101825560009190915283517fdf6966c971051c3d54ec59162606531493a51404a002842f56009d7e5cf4a8c760069092029182018054945163ffffffff199095169188169190911767ffffffff000000001916600160201b94909716939093029590951782555180519295509093612c6d937fdf6966c971051c3d54ec59162606531493a51404a002842f56009d7e5cf4a8c8909101929101906135c4565b5060608201516002820180546001600160a01b0319166001600160a01b0390921691909117905560808201518051612caf9160038401916020909101906135c4565b5060a08201518051612ccb9160048401916020909101906135c4565b5060c0820151816005015550507ff4f3f9ff99cd2a0dc1a2779035b0b53dbd7147b7ad85e1022123daa1edc6067785828633878742604051610e1c9796959493929190613fdd565b6006546001600160a01b03163314612d6d5760405162461bcd60e51b815260206004820181905260248201527f4f776e61626c653a2063616c6c6572206973206e6f7420746865206f776e65726044820152606401610628565b6001600160a01b038116612dd25760405162461bcd60e51b815260206004820152602660248201527f4f776e61626c653a206e6577206f776e657220697320746865207a65726f206160448201526564647265737360d01b6064820152608401610628565b612ddb81613202565b50565b600081815260046020526040902080546001600160a01b0319166001600160a01b0384169081179091558190612e1382611930565b6001600160a01b03167f8c5be1e5ebec7d5bd14f71427d1e84f3dd0314c0f7b2291e5b200ac8c7c3b92560405160405180910390a45050565b606081612e7157506040805180820190915260018152600360fc1b602082015261051c565b8160005b8115612e9b5780612e85816140ce565b9150612e949050600a83614068565b9150612e75565b60008167ffffffffffffffff811115612ec457634e487b7160e01b600052604160045260246000fd5b6040519080825280601f01601f191660200182016040528015612eee576020820181803683370190505b5090505b8415612f6757612f0360018361407c565b9150612f10600a8661410d565b612f1b906030614050565b60f81b818381518110612f3e57634e487b7160e01b600052603260045260246000fd5b60200101906001600160f81b031916908160001a905350612f60600a86614068565b9450612ef2565b949350505050565b6000818152600260205260408120546001600160a01b0316612fe85760405162461bcd60e51b815260206004820152602c60248201527f4552433732313a206f70657261746f7220717565727920666f72206e6f6e657860448201526b34b9ba32b73a103a37b5b2b760a11b6064820152608401610628565b6000612ff383611930565b9050806001600160a01b0316846001600160a01b0316148061302e5750836001600160a01b0316613023846105b3565b6001600160a01b0316145b80612f6757506001600160a01b0380821660009081526005602090815260408083209388168352929052205460ff16612f67565b826001600160a01b031661307582611930565b6001600160a01b0316146130dd5760405162461bcd60e51b815260206004820152602960248201527f4552433732313a207472616e73666572206f6620746f6b656e2074686174206960448201526839903737ba1037bbb760b91b6064820152608401610628565b6001600160a01b03821661313f5760405162461bcd60e51b8152602060048201526024808201527f4552433732313a207472616e7366657220746f20746865207a65726f206164646044820152637265737360e01b6064820152608401610628565b61314a600082612dde565b6001600160a01b038316600090815260036020526040812080546001929061317390849061407c565b90915550506001600160a01b03821660009081526003602052604081208054600192906131a1908490614050565b909155505060008181526002602052604080822080546001600160a01b0319166001600160a01b0386811691821790925591518493918716917fddf252ad1be2c89b69c2b068fc378daa952ba7f163c4a11628f55a4df523b3ef91a4505050565b600680546001600160a01b038381166001600160a01b0319831681179093556040519116919082907f8be0079c531659141344cd1fd0a4f28419497f9722a3daafe3b4186f6b6457e090600090a35050565b816001600160a01b0316836001600160a01b031614156132b65760405162461bcd60e51b815260206004820152601960248201527f4552433732313a20617070726f766520746f2063616c6c6572000000000000006044820152606401610628565b6001600160a01b03838116600081815260056020908152604080832094871680845294825291829020805460ff191686151590811790915591519182527f17307eab39ab6107e8899845ad3d59bd9653f200f220920489ca2b5937696c31910160405180910390a3505050565b61332e848484613062565b61333a848484846134b7565b6124ed5760405162461bcd60e51b815260040161062890613e32565b6001600160a01b0382166133ac5760405162461bcd60e51b815260206004820181905260248201527f4552433732313a206d696e7420746f20746865207a65726f20616464726573736044820152606401610628565b6000818152600260205260409020546001600160a01b0316156134115760405162461bcd60e51b815260206004820152601c60248201527f4552433732313a20746f6b656e20616c7265616479206d696e746564000000006044820152606401610628565b6001600160a01b038216600090815260036020526040812080546001929061343a908490614050565b909155505060008181526002602052604080822080546001600160a01b0319166001600160a01b03861690811790915590518392907fddf252ad1be2c89b69c2b068fc378daa952ba7f163c4a11628f55a4df523b3ef908290a45050565b6000828152600960209081526040909120825161075e928401906135c4565b60006001600160a01b0384163b156135b957604051630a85bd0160e11b81526001600160a01b0385169063150b7a02906134fb903390899088908890600401613ae6565b602060405180830381600087803b15801561351557600080fd5b505af1925050508015613545575060408051601f3d908101601f19168201909252613542918101906138e8565b60015b61359f573d808015613573576040519150601f19603f3d011682016040523d82523d6000602084013e613578565b606091505b5080516135975760405162461bcd60e51b815260040161062890613e32565b805181602001fd5b6001600160e01b031916630a85bd0160e11b149050612f67565b506001949350505050565b8280546135d090614093565b90600052602060002090601f0160209004810192826135f25760008555613638565b82601f1061360b57805160ff1916838001178555613638565b82800160010185558215613638579182015b8281111561363857825182559160200191906001019061361d565b50613644929150613648565b5090565b5b808211156136445760008155600101613649565b600067ffffffffffffffff808411156136785761367861414d565b604051601f8501601f19908116603f011681019082821181831017156136a0576136a061414d565b816040528093508581528686860111156136b957600080fd5b858560208301376000602087830101525050509392505050565b80356001600160a01b038116811461051c57600080fd5b600082601f8301126136fa578081fd5b612b468383356020850161365d565b803563ffffffff8116811461051c57600080fd5b60006020828403121561372e578081fd5b612b46826136d3565b60008060408385031215613749578081fd5b613752836136d3565b9150613760602084016136d3565b90509250929050565b60008060006060848603121561377d578081fd5b613786846136d3565b9250613794602085016136d3565b9150604084013590509250925092565b600080600080608085870312156137b9578081fd5b6137c2856136d3565b93506137d0602086016136d3565b925060408501359150606085013567ffffffffffffffff8111156137f2578182fd5b8501601f81018713613802578182fd5b6138118782356020840161365d565b91505092959194509250565b6000806040838503121561382f578182fd5b613838836136d3565b91506020830135801515811461384c578182fd5b809150509250929050565b60008060408385031215613869578182fd5b613872836136d3565b9150602083013567ffffffffffffffff81111561388d578182fd5b613899858286016136ea565b9150509250929050565b600080604083850312156138b5578182fd5b6138be836136d3565b946020939093013593505050565b6000602082840312156138dd578081fd5b8135612b4681614163565b6000602082840312156138f9578081fd5b8151612b4681614163565b60008060008060808587031215613919578384fd5b843567ffffffffffffffff80821115613930578586fd5b61393c888389016136ea565b95506020870135915080821115613951578485fd5b61395d888389016136ea565b94506040870135915080821115613972578384fd5b61397e888389016136ea565b93506060870135915080821115613993578283fd5b50613811878288016136ea565b6000602082840312156139b1578081fd5b5035919050565b6000602082840312156139c9578081fd5b612b4682613709565b600080600080608085870312156139e7578182fd5b6139f085613709565b9350602085013567ffffffffffffffff80821115613951578384fd5b60008151808452815b81811015613a3157602081850181015186830182015201613a15565b81811115613a425782602083870101525b50601f01601f19169290920160200192915050565b600063ffffffff80835116845280602084015116602085015250604082015160e06040850152613a8a60e0850182613a0c565b905060018060a01b03606084015116606085015260808301518482036080860152613ab58282613a0c565b91505060a083015184820360a0860152613acf8282613a0c565b91505060c083015160c08501528091505092915050565b6001600160a01b0385811682528416602082015260408101839052608060608201819052600090613b1990830184613a0c565b9695505050505050565b6000602080830181845280855180835260408601915060408482028701019250838701855b82811015613b7657603f19888603018452613b64858351613a57565b94509285019290850190600101613b48565b5092979650505050505050565b60208082528251828201819052600091906040908185019080840286018301878501865b83811015613c7657603f19898403018552815160e063ffffffff825116855288820151818a870152613bdb82870182613a0c565b91505087820151613bf6898701826001600160a01b03169052565b5060608083015186830382880152613c0e8382613a0c565b9250505060808083015186830382880152613c298382613a0c565b9250505060a08083015186830382880152613c448382613a0c565b9250505060c08083015192508582038187015250613c628183613a0c565b968901969450505090860190600101613ba7565b509098975050505050505050565b60208082528251828201819052600091906040908185019080840286018301878501865b83811015613c7657603f19898403018552815160608151855288820151818a870152613cd682870182613a0c565b91505087820151915084810388860152613cf08183613a0c565b968901969450505090860190600101613ca8565b6000602080830181845280855180835260408601915060408482028701019250838701855b82811015613b7657603f19888603018452613d45858351613a57565b94509285019290850190600101613d29565b600060208252612b466020830184613a0c565b600060c08252613d7d60c0830189613a0c565b6001600160a01b0388166020840152604083018790528281036060840152613da58187613a0c565b90508281036080840152613db98186613a0c565b905082810360a0840152613dcd8185613a0c565b9998505050505050505050565b600060808252613ded6080830187613a0c565b8281036020840152613dff8187613a0c565b90508281036040840152613e138186613a0c565b90508281036060840152613e278185613a0c565b979650505050505050565b60208082526032908201527f4552433732313a207472616e7366657220746f206e6f6e20455243373231526560408201527131b2b4bb32b91034b6b83632b6b2b73a32b960711b606082015260800190565b60208082526031908201527f4552433732313a207472616e736665722063616c6c6572206973206e6f74206f6040820152701ddb995c881b9bdc88185c1c1c9bdd9959607a1b606082015260800190565b600060208252825160806020840152613ef160a0840182613a0c565b90506020840151601f1980858403016040860152613f0f8383613a0c565b92506040860151915080858403016060860152613f2c8383613a0c565b9250606086015191508085840301608086015250613f4a8282613a0c565b95945050505050565b600063ffffffff8916825260e06020830152613f7260e0830189613a0c565b6001600160a01b03881660408401528281036060840152613f938188613a0c565b90508281036080840152613fa78187613a0c565b905082810360a0840152613fbb8186613a0c565b905082810360c0840152613fcf8185613a0c565b9a9950505050505050505050565b600063ffffffff808a16835280891660208401525060e0604083015261400660e0830188613a0c565b6001600160a01b038716606084015282810360808401526140278187613a0c565b905082810360a084015261403b8186613a0c565b9150508260c083015298975050505050505050565b6000821982111561406357614063614121565b500190565b60008261407757614077614137565b500490565b60008282101561408e5761408e614121565b500390565b6002810460018216806140a757607f821691505b602082108114156140c857634e487b7160e01b600052602260045260246000fd5b50919050565b60006000198214156140e2576140e2614121565b5060010190565b600063ffffffff8083168181141561410357614103614121565b6001019392505050565b60008261411c5761411c614137565b500690565b634e487b7160e01b600052601160045260246000fd5b634e487b7160e01b600052601260045260246000fd5b634e487b7160e01b600052604160045260246000fd5b6001600160e01b031981168114612ddb57600080fdfea2646970667358221220a0e00bc8bfae2ea09916cf26567f186f13c503f2758993a77a352f84035ae10264736f6c63430008020033",
  "linkReferences": {},
  "deployedLinkReferences": {}
}